{
  "contractName": "BoringOwnableData",
  "abi": [
    {
      "inputs": [],
      "name": "owner",
      "outputs": [
        {
          "internalType": "address",
          "name": "",
          "type": "address"
        }
      ],
      "stateMutability": "view",
      "type": "function"
    },
    {
      "inputs": [],
      "name": "pendingOwner",
      "outputs": [
        {
          "internalType": "address",
          "name": "",
          "type": "address"
        }
      ],
      "stateMutability": "view",
      "type": "function"
    }
  ],
  "bytecode": "0x608060405234801561001057600080fd5b5061011b806100206000396000f3fe6080604052348015600f57600080fd5b506004361060325760003560e01c80638da5cb5b146037578063e30c3978146069575b600080fd5b603d609b565b604051808273ffffffffffffffffffffffffffffffffffffffff16815260200191505060405180910390f35b606f60bf565b604051808273ffffffffffffffffffffffffffffffffffffffff16815260200191505060405180910390f35b60008054906101000a900473ffffffffffffffffffffffffffffffffffffffff1681565b600160009054906101000a900473ffffffffffffffffffffffffffffffffffffffff168156fea2646970667358221220fe0a56d921b20e5fd012a7a26ad5cf5ccfa839447bbc6127e129a2a87c28747f64736f6c634300060c0033",
  "immutableReferences": {},
  "source": "// SPDX-License-Identifier: MIT\r\n// Audit on 5-Jan-2021 by Keno and BoringCrypto\r\n\r\n// P1 - P3: OK\r\npragma solidity 0.6.12;\r\n\r\n// Source: https://github.com/OpenZeppelin/openzeppelin-contracts/blob/master/contracts/access/Ownable.sol + Claimable.sol\r\n// Edited by BoringCrypto\r\n\r\n// T1 - T4: OK\r\ncontract BoringOwnableData {\r\n    // V1 - V5: OK\r\n    address public owner;\r\n    // V1 - V5: OK\r\n    address public pendingOwner;\r\n}\r\n\r\n// T1 - T4: OK\r\ncontract BoringOwnable is BoringOwnableData {\r\n    // E1: OK\r\n    event OwnershipTransferred(address indexed previousOwner, address indexed newOwner);\r\n\r\n    constructor () public {\r\n        owner = msg.sender;\r\n        emit OwnershipTransferred(address(0), msg.sender);\r\n    }\r\n\r\n    // F1 - F9: OK\r\n    // C1 - C21: OK\r\n    function transferOwnership(address newOwner, bool direct, bool renounce) public onlyOwner {\r\n        if (direct) {\r\n            // Checks\r\n            require(newOwner != address(0) || renounce, \"Ownable: zero address\");\r\n\r\n            // Effects\r\n            emit OwnershipTransferred(owner, newOwner);\r\n            owner = newOwner;\r\n            pendingOwner = address(0);\r\n        } else {\r\n            // Effects\r\n            pendingOwner = newOwner;\r\n        }\r\n    }\r\n\r\n    // F1 - F9: OK\r\n    // C1 - C21: OK\r\n    function claimOwnership() public {\r\n        address _pendingOwner = pendingOwner;\r\n        \r\n        // Checks\r\n        require(msg.sender == _pendingOwner, \"Ownable: caller != pending owner\");\r\n\r\n        // Effects\r\n        emit OwnershipTransferred(owner, _pendingOwner);\r\n        owner = _pendingOwner;\r\n        pendingOwner = address(0);\r\n    }\r\n\r\n    // M1 - M5: OK\r\n    // C1 - C21: OK\r\n    modifier onlyOwner() {\r\n        require(msg.sender == owner, \"Ownable: caller is not the owner\");\r\n        _;\r\n    }\r\n}",
  "sourcePath": "@boringcrypto/boring-solidity/contracts/BoringOwnable.sol",
  "compiler": {
    "name": "solc",
    "version": "0.6.12+commit.27d51765.Emscripten.clang"
  },
  "schemaVersion": "3.4.1",
  "updatedAt": "2021-07-09T12:23:37.278Z",
  "devdoc": {
    "kind": "dev",
    "methods": {},
    "version": 1
  },
  "userdoc": {
    "kind": "user",
    "methods": {},
    "version": 1
  }
}