{
  "contractName": "JollofMaker",
  "abi": [
    {
      "inputs": [
        {
          "internalType": "address",
          "name": "_factory",
          "type": "address"
        },
        {
          "internalType": "address",
          "name": "_shed",
          "type": "address"
        },
        {
          "internalType": "address",
          "name": "_jollof",
          "type": "address"
        },
        {
          "internalType": "address",
          "name": "_weth",
          "type": "address"
        }
      ],
      "stateMutability": "nonpayable",
      "type": "constructor"
    },
    {
      "anonymous": false,
      "inputs": [
        {
          "indexed": true,
          "internalType": "address",
          "name": "token",
          "type": "address"
        },
        {
          "indexed": true,
          "internalType": "address",
          "name": "bridge",
          "type": "address"
        }
      ],
      "name": "LogBridgeSet",
      "type": "event"
    },
    {
      "anonymous": false,
      "inputs": [
        {
          "indexed": true,
          "internalType": "address",
          "name": "server",
          "type": "address"
        },
        {
          "indexed": true,
          "internalType": "address",
          "name": "token0",
          "type": "address"
        },
        {
          "indexed": true,
          "internalType": "address",
          "name": "token1",
          "type": "address"
        },
        {
          "indexed": false,
          "internalType": "uint256",
          "name": "amount0",
          "type": "uint256"
        },
        {
          "indexed": false,
          "internalType": "uint256",
          "name": "amount1",
          "type": "uint256"
        },
        {
          "indexed": false,
          "internalType": "uint256",
          "name": "amountJOLLOF",
          "type": "uint256"
        }
      ],
      "name": "LogConvert",
      "type": "event"
    },
    {
      "anonymous": false,
      "inputs": [
        {
          "indexed": true,
          "internalType": "address",
          "name": "previousOwner",
          "type": "address"
        },
        {
          "indexed": true,
          "internalType": "address",
          "name": "newOwner",
          "type": "address"
        }
      ],
      "name": "OwnershipTransferred",
      "type": "event"
    },
    {
      "inputs": [],
      "name": "claimOwnership",
      "outputs": [],
      "stateMutability": "nonpayable",
      "type": "function"
    },
    {
      "inputs": [],
      "name": "factory",
      "outputs": [
        {
          "internalType": "contract IUniswapV2Factory",
          "name": "",
          "type": "address"
        }
      ],
      "stateMutability": "view",
      "type": "function",
      "constant": true
    },
    {
      "inputs": [],
      "name": "owner",
      "outputs": [
        {
          "internalType": "address",
          "name": "",
          "type": "address"
        }
      ],
      "stateMutability": "view",
      "type": "function",
      "constant": true
    },
    {
      "inputs": [],
      "name": "pendingOwner",
      "outputs": [
        {
          "internalType": "address",
          "name": "",
          "type": "address"
        }
      ],
      "stateMutability": "view",
      "type": "function",
      "constant": true
    },
    {
      "inputs": [],
      "name": "shed",
      "outputs": [
        {
          "internalType": "address",
          "name": "",
          "type": "address"
        }
      ],
      "stateMutability": "view",
      "type": "function",
      "constant": true
    },
    {
      "inputs": [
        {
          "internalType": "address",
          "name": "newOwner",
          "type": "address"
        },
        {
          "internalType": "bool",
          "name": "direct",
          "type": "bool"
        },
        {
          "internalType": "bool",
          "name": "renounce",
          "type": "bool"
        }
      ],
      "name": "transferOwnership",
      "outputs": [],
      "stateMutability": "nonpayable",
      "type": "function"
    },
    {
      "inputs": [
        {
          "internalType": "address",
          "name": "token",
          "type": "address"
        }
      ],
      "name": "bridgeFor",
      "outputs": [
        {
          "internalType": "address",
          "name": "bridge",
          "type": "address"
        }
      ],
      "stateMutability": "view",
      "type": "function",
      "constant": true
    },
    {
      "inputs": [
        {
          "internalType": "address",
          "name": "token",
          "type": "address"
        },
        {
          "internalType": "address",
          "name": "bridge",
          "type": "address"
        }
      ],
      "name": "setBridge",
      "outputs": [],
      "stateMutability": "nonpayable",
      "type": "function"
    },
    {
      "inputs": [
        {
          "internalType": "address",
          "name": "token0",
          "type": "address"
        },
        {
          "internalType": "address",
          "name": "token1",
          "type": "address"
        }
      ],
      "name": "convert",
      "outputs": [],
      "stateMutability": "nonpayable",
      "type": "function"
    },
    {
      "inputs": [
        {
          "internalType": "address[]",
          "name": "token0",
          "type": "address[]"
        },
        {
          "internalType": "address[]",
          "name": "token1",
          "type": "address[]"
        }
      ],
      "name": "convertMultiple",
      "outputs": [],
      "stateMutability": "nonpayable",
      "type": "function"
    }
  ],
  "bytecode": "0x61010060405234801561001157600080fd5b506040516117a23803806117a28339818101604052608081101561003457600080fd5b5080516020820151604080840151606090940151600080546001600160a01b0319163390811782559251949593949192917f8be0079c531659141344cd1fd0a4f28419497f9722a3daafe3b4186f6b6457e0908290a36001600160601b0319606094851b811660805292841b831660a05290831b821660c05290911b1660e05260805160601c60a05160601c60c05160601c60e05160601c61163f610163600039806105de52806106fc5280610cdc5280610d195280610ebe5280610efb5280610f245280610f515280610f8e5280610fb75250806105a15280610c465280610c8b5280610d795280610dbe5280610e225280610e6752806110ea5250806103a15280610cad5280610de05280610e89528061110c52508061078152806107b6528061113c525061163f6000f3fe608060405234801561001057600080fd5b506004361061009e5760003560e01c80639d22ae8c116100665780639d22ae8c146101d1578063a761a939146101ff578063bd1b820c14610225578063c45a015514610253578063e30c39781461025b5761009e565b8063078dfbe7146100a357806322dbbc7a146100db578063303e6aa4146100ff5780634e71e0c8146101c15780638da5cb5b146101c9575b600080fd5b6100d9600480360360608110156100b957600080fd5b506001600160a01b03813516906020810135151590604001351515610263565b005b6100e361039f565b604080516001600160a01b039092168252519081900360200190f35b6100d96004803603604081101561011557600080fd5b81019060208101813564010000000081111561013057600080fd5b82018360208201111561014257600080fd5b8035906020019184602083028401116401000000008311171561016457600080fd5b91939092909160208101903564010000000081111561018257600080fd5b82018360208201111561019457600080fd5b803590602001918460208302840111640100000000831117156101b657600080fd5b5090925090506103c3565b6100d961046f565b6100e3610531565b6100d9600480360360408110156101e757600080fd5b506001600160a01b0381358116916020013516610540565b6100e36004803603602081101561021557600080fd5b50356001600160a01b03166106d9565b6100d96004803603604081101561023b57600080fd5b506001600160a01b0381358116916020013516610721565b6100e361077f565b6100e36107a3565b6000546001600160a01b031633146102c2576040805162461bcd60e51b815260206004820181905260248201527f4f776e61626c653a2063616c6c6572206973206e6f7420746865206f776e6572604482015290519081900360640190fd5b811561037e576001600160a01b0383161515806102dc5750805b610325576040805162461bcd60e51b81526020600482015260156024820152744f776e61626c653a207a65726f206164647265737360581b604482015290519081900360640190fd5b600080546040516001600160a01b03808716939216917f8be0079c531659141344cd1fd0a4f28419497f9722a3daafe3b4186f6b6457e091a3600080546001600160a01b0319166001600160a01b03851617905561039a565b600180546001600160a01b0319166001600160a01b0385161790555b505050565b7f000000000000000000000000000000000000000000000000000000000000000081565b333214610413576040805162461bcd60e51b81526020600482015260196024820152784a6f6c6c6f664d616b65723a206d7573742075736520454f4160381b604482015290519081900360640190fd5b8260005b818110156104675761045f86868381811061042e57fe5b905060200201356001600160a01b031685858481811061044a57fe5b905060200201356001600160a01b03166107b2565b600101610417565b505050505050565b6001546001600160a01b03163381146104cf576040805162461bcd60e51b815260206004820181905260248201527f4f776e61626c653a2063616c6c657220213d2070656e64696e67206f776e6572604482015290519081900360640190fd5b600080546040516001600160a01b03808516939216917f8be0079c531659141344cd1fd0a4f28419497f9722a3daafe3b4186f6b6457e091a3600080546001600160a01b039092166001600160a01b0319928316179055600180549091169055565b6000546001600160a01b031681565b6000546001600160a01b0316331461059f576040805162461bcd60e51b815260206004820181905260248201527f4f776e61626c653a2063616c6c6572206973206e6f7420746865206f776e6572604482015290519081900360640190fd5b7f00000000000000000000000000000000000000000000000000000000000000006001600160a01b0316826001600160a01b03161415801561061357507f00000000000000000000000000000000000000000000000000000000000000006001600160a01b0316826001600160a01b031614155b80156106315750806001600160a01b0316826001600160a01b031614155b610682576040805162461bcd60e51b815260206004820152601b60248201527f4a6f6c6c6f664d616b65723a20496e76616c6964206272696467650000000000604482015290519081900360640190fd5b6001600160a01b0382811660008181526002602052604080822080546001600160a01b0319169486169485179055517f2e103aa707acc565f9a1547341914802b2bfe977fd79c595209f248ae4b006139190a35050565b6001600160a01b03808216600090815260026020526040902054168061071c57507f00000000000000000000000000000000000000000000000000000000000000005b919050565b333214610771576040805162461bcd60e51b81526020600482015260196024820152784a6f6c6c6f664d616b65723a206d7573742075736520454f4160381b604482015290519081900360640190fd5b61077b82826107b2565b5050565b7f000000000000000000000000000000000000000000000000000000000000000081565b6001546001600160a01b031681565b60007f00000000000000000000000000000000000000000000000000000000000000006001600160a01b031663e6a4390584846040518363ffffffff1660e01b815260040180836001600160a01b03168152602001826001600160a01b031681526020019250505060206040518083038186803b15801561083257600080fd5b505afa158015610846573d6000803e3d6000fd5b505050506040513d602081101561085c57600080fd5b505190506001600160a01b0381166108bb576040805162461bcd60e51b815260206004820152601960248201527f4a6f6c6c6f664d616b65723a20496e76616c6964207061697200000000000000604482015290519081900360640190fd5b61094981826001600160a01b03166370a08231306040518263ffffffff1660e01b815260040180826001600160a01b0316815260200191505060206040518083038186803b15801561090c57600080fd5b505afa158015610920573d6000803e3d6000fd5b505050506040513d602081101561093657600080fd5b50516001600160a01b0384169190610ab0565b600080826001600160a01b03166389afcb44306040518263ffffffff1660e01b815260040180826001600160a01b031681526020019150506040805180830381600087803b15801561099a57600080fd5b505af11580156109ae573d6000803e3d6000fd5b505050506040513d60408110156109c457600080fd5b50805160209182015160408051630dfe168160e01b815290519295509093506001600160a01b03861692630dfe168192600480840193829003018186803b158015610a0e57600080fd5b505afa158015610a22573d6000803e3d6000fd5b505050506040513d6020811015610a3857600080fd5b50516001600160a01b03868116911614610a4e57905b6001600160a01b03808516908616337fd06b1d7ed79b664d17472c6f6997b929f1abe463ccccb4e5b6a0038f2f730c158585610a8c8b8b8484610c1a565b60408051938452602084019290925282820152519081900360600190a45050505050565b604080516001600160a01b038481166024830152604480830185905283518084039091018152606490920183526020820180516001600160e01b031663a9059cbb60e01b178152925182516000946060949389169392918291908083835b60208310610b2d5780518252601f199092019160209182019101610b0e565b6001836020036101000a0380198251168184511680821785525050505050509050019150506000604051808303816000865af19150503d8060008114610b8f576040519150601f19603f3d011682016040523d82523d6000602084013e610b94565b606091505b5091509150818015610bc2575080511580610bc25750808060200190516020811015610bbf57600080fd5b50515b610c13576040805162461bcd60e51b815260206004820152601a60248201527f5361666545524332303a205472616e73666572206661696c6564000000000000604482015290519081900360640190fd5b5050505050565b6000836001600160a01b0316856001600160a01b03161415610d77576000610c42848461108b565b90507f00000000000000000000000000000000000000000000000000000000000000006001600160a01b0316866001600160a01b03161415610cda57610cd26001600160a01b037f0000000000000000000000000000000000000000000000000000000000000000167f000000000000000000000000000000000000000000000000000000000000000083610ab0565b809150610d71565b7f00000000000000000000000000000000000000000000000000000000000000006001600160a01b0316866001600160a01b03161415610d4557610d3e7f0000000000000000000000000000000000000000000000000000000000000000826110e2565b9150610d71565b6000610d50876106d9565b9050610d5e87828430611137565b9150610d6d8182846000610c1a565b9250505b50611083565b7f00000000000000000000000000000000000000000000000000000000000000006001600160a01b0316856001600160a01b03161415610e2057610e056001600160a01b037f0000000000000000000000000000000000000000000000000000000000000000167f000000000000000000000000000000000000000000000000000000000000000085610ab0565b610e1983610e1386856110e2565b9061108b565b9050611083565b7f00000000000000000000000000000000000000000000000000000000000000006001600160a01b0316846001600160a01b03161415610ebc57610eae6001600160a01b037f0000000000000000000000000000000000000000000000000000000000000000167f000000000000000000000000000000000000000000000000000000000000000084610ab0565b610e1982610e1387866110e2565b7f00000000000000000000000000000000000000000000000000000000000000006001600160a01b0316856001600160a01b03161415610f4f57610e197f0000000000000000000000000000000000000000000000000000000000000000610f4a85610e13887f00000000000000000000000000000000000000000000000000000000000000008830611137565b6110e2565b7f00000000000000000000000000000000000000000000000000000000000000006001600160a01b0316846001600160a01b03161415610fdd57610e197f0000000000000000000000000000000000000000000000000000000000000000610f4a84610e13897f00000000000000000000000000000000000000000000000000000000000000008930611137565b6000610fe8866106d9565b90506000610ff5866106d9565b9050856001600160a01b0316826001600160a01b0316141561102f5761102882876110228a868a30611137565b87610c1a565b9250611080565b866001600160a01b0316816001600160a01b031614156110605761102887828761105b8a868a30611137565b610c1a565b61107d82826110718a868a30611137565b61105b8a868a30611137565b92505b50505b949350505050565b818101818110156110dc576040805162461bcd60e51b8152602060048201526016602482015275536166654d6174683a20416464204f766572666c6f7760501b604482015290519081900360640190fd5b92915050565b6000611130837f0000000000000000000000000000000000000000000000000000000000000000847f0000000000000000000000000000000000000000000000000000000000000000611137565b9392505050565b6000807f00000000000000000000000000000000000000000000000000000000000000006001600160a01b031663e6a4390587876040518363ffffffff1660e01b815260040180836001600160a01b03168152602001826001600160a01b031681526020019250505060206040518083038186803b1580156111b857600080fd5b505afa1580156111cc573d6000803e3d6000fd5b505050506040513d60208110156111e257600080fd5b505190506001600160a01b038116611241576040805162461bcd60e51b815260206004820152601b60248201527f4a6f6c6c6f664d616b65723a2043616e6e6f7420636f6e766572740000000000604482015290519081900360640190fd5b600080826001600160a01b0316630902f1ac6040518163ffffffff1660e01b815260040160606040518083038186803b15801561127d57600080fd5b505afa158015611291573d6000803e3d6000fd5b505050506040513d60608110156112a757600080fd5b5080516020909101516dffffffffffffffffffffffffffff918216935016905060006112d5876103e56115a4565b9050836001600160a01b0316630dfe16816040518163ffffffff1660e01b815260040160206040518083038186803b15801561131057600080fd5b505afa158015611324573d6000803e3d6000fd5b505050506040513d602081101561133a57600080fd5b50516001600160a01b038a8116911614156114755761135f81610e13856103e86115a4565b61136982846115a4565b8161137057fe5b0494506113876001600160a01b038a168589610ab0565b604080516000808252602082019283905263022c0d9f60e01b835260248201818152604483018990526001600160a01b038a81166064850152608060848501908152845160a48601819052918a169563022c0d9f958c948e9491939092909160c4850191908083838b5b838110156114095781810151838201526020016113f1565b50505050905090810190601f1680156114365780820380516001836020036101000a031916815260200191505b5095505050505050600060405180830381600087803b15801561145857600080fd5b505af115801561146c573d6000803e3d6000fd5b50505050611598565b61148581610e13846103e86115a4565b61148f82856115a4565b8161149657fe5b0494506114ad6001600160a01b038a168589610ab0565b604080516000808252602082019283905263022c0d9f60e01b835260248201888152604483018290526001600160a01b038a81166064850152608060848501908152845160a48601819052918a169563022c0d9f958c95948e9491939092909160c4850191908083838a5b83811015611530578181015183820152602001611518565b50505050905090810190601f16801561155d5780820380516001836020036101000a031916815260200191505b5095505050505050600060405180830381600087803b15801561157f57600080fd5b505af1158015611593573d6000803e3d6000fd5b505050505b50505050949350505050565b60008115806115bf575050808202828282816115bc57fe5b04145b6110dc576040805162461bcd60e51b8152602060048201526016602482015275536166654d6174683a204d756c204f766572666c6f7760501b604482015290519081900360640190fdfea264697066735822122025f8eccaf4a449d8bf5f1c8c50043362d8f2cf60c59652b1865b8194e02041a964736f6c634300060c0033",
  "immutableReferences": {
    "17": [
      {
        "length": 32,
        "start": 1921
      },
      {
        "length": 32,
        "start": 1974
      },
      {
        "length": 32,
        "start": 4412
      }
    ],
    "19": [
      {
        "length": 32,
        "start": 929
      },
      {
        "length": 32,
        "start": 3245
      },
      {
        "length": 32,
        "start": 3552
      },
      {
        "length": 32,
        "start": 3721
      },
      {
        "length": 32,
        "start": 4364
      }
    ],
    "21": [
      {
        "length": 32,
        "start": 1441
      },
      {
        "length": 32,
        "start": 3142
      },
      {
        "length": 32,
        "start": 3211
      },
      {
        "length": 32,
        "start": 3449
      },
      {
        "length": 32,
        "start": 3518
      },
      {
        "length": 32,
        "start": 3618
      },
      {
        "length": 32,
        "start": 3687
      },
      {
        "length": 32,
        "start": 4330
      }
    ],
    "23": [
      {
        "length": 32,
        "start": 1502
      },
      {
        "length": 32,
        "start": 1788
      },
      {
        "length": 32,
        "start": 3292
      },
      {
        "length": 32,
        "start": 3353
      },
      {
        "length": 32,
        "start": 3774
      },
      {
        "length": 32,
        "start": 3835
      },
      {
        "length": 32,
        "start": 3876
      },
      {
        "length": 32,
        "start": 3921
      },
      {
        "length": 32,
        "start": 3982
      },
      {
        "length": 32,
        "start": 4023
      }
    ]
  },
  "source": "// SPDX-License-Identifier: MIT\n\n// P1 - P3: OK\npragma solidity 0.6.12;\nimport \"./libraries/SafeMath.sol\";\nimport \"./libraries/SafeERC20.sol\";\n\nimport \"./uniswapv2/interfaces/IUniswapV2ERC20.sol\";\nimport \"./uniswapv2/interfaces/IUniswapV2Pair.sol\";\nimport \"./uniswapv2/interfaces/IUniswapV2Factory.sol\";\n\nimport \"./Ownable.sol\";\n\n// JollofMaker is MamaPut's left hand and kinda a busy body. He can cook up Jollof from pretty much anything!\n// This contract handles \"serving up\" rewards for xJollof holders by trading tokens collected from fees for Jollof.\n\n// T1 - T4: OK\ncontract JollofMaker is Ownable {\n    using SafeMath for uint256;\n    using SafeERC20 for IERC20;\n\n    // V1 - V5: OK\n    IUniswapV2Factory public immutable factory;\n    //0xC0AEe478e3658e2610c5F7A4A2E1777cE9e4f2Ac\n    // V1 - V5: OK\n    address public immutable shed;\n    //0x8798249c2E607446EfB7Ad49eC89dD1865Ff4272\n    // V1 - V5: OK\n    address private immutable jollof;\n    //0x6B3595068778DD592e39A122f4f5a5cF09C90fE2\n    // V1 - V5: OK\n    address private immutable weth;\n    //0xC02aaA39b223FE8D0A0e5C4F27eAD9083C756Cc2\n\n    // V1 - V5: OK\n    mapping(address => address) internal _bridges;\n\n    // E1: OK\n    event LogBridgeSet(address indexed token, address indexed bridge);\n    // E1: OK\n    event LogConvert(\n        address indexed server,\n        address indexed token0,\n        address indexed token1,\n        uint256 amount0,\n        uint256 amount1,\n        uint256 amountJOLLOF\n    );\n\n    constructor(\n        address _factory,\n        address _shed,\n        address _jollof,\n        address _weth\n    ) public {\n        factory = IUniswapV2Factory(_factory);\n        shed = _shed;\n        jollof = _jollof;\n        weth = _weth;\n    }\n\n    // F1 - F10: OK\n    // C1 - C24: OK\n    function bridgeFor(address token) public view returns (address bridge) {\n        bridge = _bridges[token];\n        if (bridge == address(0)) {\n            bridge = weth;\n        }\n    }\n\n    // F1 - F10: OK\n    // C1 - C24: OK\n    function setBridge(address token, address bridge) external onlyOwner {\n        // Checks\n        require(\n            token != jollof && token != weth && token != bridge,\n            \"JollofMaker: Invalid bridge\"\n        );\n\n        // Effects\n        _bridges[token] = bridge;\n        emit LogBridgeSet(token, bridge);\n    }\n\n    // M1 - M5: OK\n    // C1 - C24: OK\n    // C6: It's not a fool proof solution, but it prevents flash loans, so here it's ok to use tx.origin\n    modifier onlyEOA() {\n        // Try to make flash-loan exploit harder to do by only allowing externally owned addresses.\n        require(msg.sender == tx.origin, \"JollofMaker: must use EOA\");\n        _;\n    }\n\n    // F1 - F10: OK\n    // F3: _convert is separate to save gas by only checking the 'onlyEOA' modifier once in case of convertMultiple\n    // F6: There is an exploit to add lots of JOLLOF to the bar, run convert, then remove the JOLLOF again.\n    //     As the size of the JollofShed has grown, this requires large amounts of funds and isn't super profitable anymore\n    //     The onlyEOA modifier prevents this being done with a flash loan.\n    // C1 - C24: OK\n    function convert(address token0, address token1) external onlyEOA() {\n        _convert(token0, token1);\n    }\n\n    // F1 - F10: OK, see convert\n    // C1 - C24: OK\n    // C3: Loop is under control of the caller\n    function convertMultiple(\n        address[] calldata token0,\n        address[] calldata token1\n    ) external onlyEOA() {\n        // TODO: This can be optimized a fair bit, but this is safer and simpler for now\n        uint256 len = token0.length;\n        for (uint256 i = 0; i < len; i++) {\n            _convert(token0[i], token1[i]);\n        }\n    }\n\n    // F1 - F10: OK\n    // C1- C24: OK\n    function _convert(address token0, address token1) internal {\n        // Interactions\n        // S1 - S4: OK\n        IUniswapV2Pair pair = IUniswapV2Pair(factory.getPair(token0, token1));\n        require(address(pair) != address(0), \"JollofMaker: Invalid pair\");\n        // balanceOf: S1 - S4: OK\n        // transfer: X1 - X5: OK\n        IERC20(address(pair)).safeTransfer(\n            address(pair),\n            pair.balanceOf(address(this))\n        );\n        // X1 - X5: OK\n        (uint256 amount0, uint256 amount1) = pair.burn(address(this));\n        if (token0 != pair.token0()) {\n            (amount0, amount1) = (amount1, amount0);\n        }\n        emit LogConvert(\n            msg.sender,\n            token0,\n            token1,\n            amount0,\n            amount1,\n            _convertStep(token0, token1, amount0, amount1)\n        );\n    }\n\n    // F1 - F10: OK\n    // C1 - C24: OK\n    // All safeTransfer, _swap, _toJOLLOF, _convertStep: X1 - X5: OK\n    function _convertStep(\n        address token0,\n        address token1,\n        uint256 amount0,\n        uint256 amount1\n    ) internal returns (uint256 jollofOut) {\n        // Interactions\n        if (token0 == token1) {\n            uint256 amount = amount0.add(amount1);\n            if (token0 == jollof) {\n                IERC20(jollof).safeTransfer(shed, amount);\n                jollofOut = amount;\n            } else if (token0 == weth) {\n                jollofOut = _toJOLLOF(weth, amount);\n            } else {\n                address bridge = bridgeFor(token0);\n                amount = _swap(token0, bridge, amount, address(this));\n                jollofOut = _convertStep(bridge, bridge, amount, 0);\n            }\n        } else if (token0 == jollof) {\n            // eg. JOLLOF - ETH\n            IERC20(jollof).safeTransfer(shed, amount0);\n            jollofOut = _toJOLLOF(token1, amount1).add(amount0);\n        } else if (token1 == jollof) {\n            // eg. USDT - JOLLOF\n            IERC20(jollof).safeTransfer(shed, amount1);\n            jollofOut = _toJOLLOF(token0, amount0).add(amount1);\n        } else if (token0 == weth) {\n            // eg. ETH - USDC\n            jollofOut = _toJOLLOF(\n                weth,\n                _swap(token1, weth, amount1, address(this)).add(amount0)\n            );\n        } else if (token1 == weth) {\n            // eg. USDT - ETH\n            jollofOut = _toJOLLOF(\n                weth,\n                _swap(token0, weth, amount0, address(this)).add(amount1)\n            );\n        } else {\n            // eg. MIC - USDT\n            address bridge0 = bridgeFor(token0);\n            address bridge1 = bridgeFor(token1);\n            if (bridge0 == token1) {\n                // eg. MIC - USDT - and bridgeFor(MIC) = USDT\n                jollofOut = _convertStep(\n                    bridge0,\n                    token1,\n                    _swap(token0, bridge0, amount0, address(this)),\n                    amount1\n                );\n            } else if (bridge1 == token0) {\n                // eg. WBTC - DSD - and bridgeFor(DSD) = WBTC\n                jollofOut = _convertStep(\n                    token0,\n                    bridge1,\n                    amount0,\n                    _swap(token1, bridge1, amount1, address(this))\n                );\n            } else {\n                jollofOut = _convertStep(\n                    bridge0,\n                    bridge1, // eg. USDT - DSD - and bridgeFor(DSD) = WBTC\n                    _swap(token0, bridge0, amount0, address(this)),\n                    _swap(token1, bridge1, amount1, address(this))\n                );\n            }\n        }\n    }\n\n    // F1 - F10: OK\n    // C1 - C24: OK\n    // All safeTransfer, swap: X1 - X5: OK\n    function _swap(\n        address fromToken,\n        address toToken,\n        uint256 amountIn,\n        address to\n    ) internal returns (uint256 amountOut) {\n        // Checks\n        // X1 - X5: OK\n        IUniswapV2Pair pair =\n            IUniswapV2Pair(factory.getPair(fromToken, toToken));\n        require(address(pair) != address(0), \"JollofMaker: Cannot convert\");\n\n        // Interactions\n        // X1 - X5: OK\n        (uint256 reserve0, uint256 reserve1, ) = pair.getReserves();\n        uint256 amountInWithFee = amountIn.mul(997);\n        if (fromToken == pair.token0()) {\n            amountOut =\n                amountInWithFee.mul(reserve1) /\n                reserve0.mul(1000).add(amountInWithFee);\n            IERC20(fromToken).safeTransfer(address(pair), amountIn);\n            pair.swap(0, amountOut, to, new bytes(0));\n            // TODO: Add maximum slippage?\n        } else {\n            amountOut =\n                amountInWithFee.mul(reserve0) /\n                reserve1.mul(1000).add(amountInWithFee);\n            IERC20(fromToken).safeTransfer(address(pair), amountIn);\n            pair.swap(amountOut, 0, to, new bytes(0));\n            // TODO: Add maximum slippage?\n        }\n    }\n\n    // F1 - F10: OK\n    // C1 - C24: OK\n    function _toJOLLOF(address token, uint256 amountIn)\n        internal\n        returns (uint256 amountOut)\n    {\n        // X1 - X5: OK\n        amountOut = _swap(token, jollof, amountIn, shed);\n    }\n}\n",
  "sourcePath": "/home/akanimoh/Documents/ultimate2/core/contracts/JollofMaker.sol",
  "compiler": {
    "name": "solc",
    "version": "0.6.12+commit.27d51765.Emscripten.clang"
  },
  "schemaVersion": "3.4.1",
  "updatedAt": "2021-07-26T18:12:37.449Z",
  "networkType": "ethereum",
  "devdoc": {
    "kind": "dev",
    "methods": {},
    "version": 1
  },
  "userdoc": {
    "kind": "user",
    "methods": {},
    "version": 1
  }
}