{
  "contractName": "MamaPutV2",
  "abi": [
    {
      "inputs": [
        {
          "internalType": "contract IMamaPut",
          "name": "_MAMA_PUT",
          "type": "address"
        },
        {
          "internalType": "contract IERC20",
          "name": "_jollof",
          "type": "address"
        },
        {
          "internalType": "uint256",
          "name": "_MASTER_PID",
          "type": "uint256"
        }
      ],
      "stateMutability": "nonpayable",
      "type": "constructor"
    },
    {
      "anonymous": false,
      "inputs": [
        {
          "indexed": true,
          "internalType": "address",
          "name": "user",
          "type": "address"
        },
        {
          "indexed": true,
          "internalType": "uint256",
          "name": "pid",
          "type": "uint256"
        },
        {
          "indexed": false,
          "internalType": "uint256",
          "name": "amount",
          "type": "uint256"
        },
        {
          "indexed": true,
          "internalType": "address",
          "name": "to",
          "type": "address"
        }
      ],
      "name": "Deposit",
      "type": "event"
    },
    {
      "anonymous": false,
      "inputs": [
        {
          "indexed": true,
          "internalType": "address",
          "name": "user",
          "type": "address"
        },
        {
          "indexed": true,
          "internalType": "uint256",
          "name": "pid",
          "type": "uint256"
        },
        {
          "indexed": false,
          "internalType": "uint256",
          "name": "amount",
          "type": "uint256"
        },
        {
          "indexed": true,
          "internalType": "address",
          "name": "to",
          "type": "address"
        }
      ],
      "name": "EmergencyWithdraw",
      "type": "event"
    },
    {
      "anonymous": false,
      "inputs": [
        {
          "indexed": true,
          "internalType": "address",
          "name": "user",
          "type": "address"
        },
        {
          "indexed": true,
          "internalType": "uint256",
          "name": "pid",
          "type": "uint256"
        },
        {
          "indexed": false,
          "internalType": "uint256",
          "name": "amount",
          "type": "uint256"
        }
      ],
      "name": "Harvest",
      "type": "event"
    },
    {
      "anonymous": false,
      "inputs": [],
      "name": "LogInit",
      "type": "event"
    },
    {
      "anonymous": false,
      "inputs": [
        {
          "indexed": true,
          "internalType": "uint256",
          "name": "pid",
          "type": "uint256"
        },
        {
          "indexed": false,
          "internalType": "uint256",
          "name": "allocPoint",
          "type": "uint256"
        },
        {
          "indexed": true,
          "internalType": "contract IERC20",
          "name": "lpToken",
          "type": "address"
        },
        {
          "indexed": true,
          "internalType": "contract IRewarder",
          "name": "rewarder",
          "type": "address"
        }
      ],
      "name": "LogPoolAddition",
      "type": "event"
    },
    {
      "anonymous": false,
      "inputs": [
        {
          "indexed": true,
          "internalType": "uint256",
          "name": "pid",
          "type": "uint256"
        },
        {
          "indexed": false,
          "internalType": "uint256",
          "name": "allocPoint",
          "type": "uint256"
        },
        {
          "indexed": true,
          "internalType": "contract IRewarder",
          "name": "rewarder",
          "type": "address"
        },
        {
          "indexed": false,
          "internalType": "bool",
          "name": "overwrite",
          "type": "bool"
        }
      ],
      "name": "LogSetPool",
      "type": "event"
    },
    {
      "anonymous": false,
      "inputs": [
        {
          "indexed": true,
          "internalType": "uint256",
          "name": "pid",
          "type": "uint256"
        },
        {
          "indexed": false,
          "internalType": "uint64",
          "name": "lastRewardBlock",
          "type": "uint64"
        },
        {
          "indexed": false,
          "internalType": "uint256",
          "name": "lpSupply",
          "type": "uint256"
        },
        {
          "indexed": false,
          "internalType": "uint256",
          "name": "accJollofPerShare",
          "type": "uint256"
        }
      ],
      "name": "LogUpdatePool",
      "type": "event"
    },
    {
      "anonymous": false,
      "inputs": [
        {
          "indexed": true,
          "internalType": "address",
          "name": "previousOwner",
          "type": "address"
        },
        {
          "indexed": true,
          "internalType": "address",
          "name": "newOwner",
          "type": "address"
        }
      ],
      "name": "OwnershipTransferred",
      "type": "event"
    },
    {
      "anonymous": false,
      "inputs": [
        {
          "indexed": true,
          "internalType": "address",
          "name": "user",
          "type": "address"
        },
        {
          "indexed": true,
          "internalType": "uint256",
          "name": "pid",
          "type": "uint256"
        },
        {
          "indexed": false,
          "internalType": "uint256",
          "name": "amount",
          "type": "uint256"
        },
        {
          "indexed": true,
          "internalType": "address",
          "name": "to",
          "type": "address"
        }
      ],
      "name": "Withdraw",
      "type": "event"
    },
    {
      "inputs": [],
      "name": "JOLLOF",
      "outputs": [
        {
          "internalType": "contract IERC20",
          "name": "",
          "type": "address"
        }
      ],
      "stateMutability": "view",
      "type": "function",
      "constant": true
    },
    {
      "inputs": [],
      "name": "MAMA_PUT",
      "outputs": [
        {
          "internalType": "contract IMamaPut",
          "name": "",
          "type": "address"
        }
      ],
      "stateMutability": "view",
      "type": "function",
      "constant": true
    },
    {
      "inputs": [],
      "name": "MASTER_PID",
      "outputs": [
        {
          "internalType": "uint256",
          "name": "",
          "type": "uint256"
        }
      ],
      "stateMutability": "view",
      "type": "function",
      "constant": true
    },
    {
      "inputs": [
        {
          "internalType": "bytes[]",
          "name": "calls",
          "type": "bytes[]"
        },
        {
          "internalType": "bool",
          "name": "revertOnFail",
          "type": "bool"
        }
      ],
      "name": "batch",
      "outputs": [
        {
          "internalType": "bool[]",
          "name": "successes",
          "type": "bool[]"
        },
        {
          "internalType": "bytes[]",
          "name": "results",
          "type": "bytes[]"
        }
      ],
      "stateMutability": "payable",
      "type": "function",
      "payable": true
    },
    {
      "inputs": [],
      "name": "claimOwnership",
      "outputs": [],
      "stateMutability": "nonpayable",
      "type": "function"
    },
    {
      "inputs": [
        {
          "internalType": "uint256",
          "name": "",
          "type": "uint256"
        }
      ],
      "name": "lpToken",
      "outputs": [
        {
          "internalType": "contract IERC20",
          "name": "",
          "type": "address"
        }
      ],
      "stateMutability": "view",
      "type": "function",
      "constant": true
    },
    {
      "inputs": [],
      "name": "migrator",
      "outputs": [
        {
          "internalType": "contract IMigratorChef",
          "name": "",
          "type": "address"
        }
      ],
      "stateMutability": "view",
      "type": "function",
      "constant": true
    },
    {
      "inputs": [],
      "name": "owner",
      "outputs": [
        {
          "internalType": "address",
          "name": "",
          "type": "address"
        }
      ],
      "stateMutability": "view",
      "type": "function",
      "constant": true
    },
    {
      "inputs": [],
      "name": "pendingOwner",
      "outputs": [
        {
          "internalType": "address",
          "name": "",
          "type": "address"
        }
      ],
      "stateMutability": "view",
      "type": "function",
      "constant": true
    },
    {
      "inputs": [
        {
          "internalType": "contract IERC20",
          "name": "token",
          "type": "address"
        },
        {
          "internalType": "address",
          "name": "from",
          "type": "address"
        },
        {
          "internalType": "address",
          "name": "to",
          "type": "address"
        },
        {
          "internalType": "uint256",
          "name": "amount",
          "type": "uint256"
        },
        {
          "internalType": "uint256",
          "name": "deadline",
          "type": "uint256"
        },
        {
          "internalType": "uint8",
          "name": "v",
          "type": "uint8"
        },
        {
          "internalType": "bytes32",
          "name": "r",
          "type": "bytes32"
        },
        {
          "internalType": "bytes32",
          "name": "s",
          "type": "bytes32"
        }
      ],
      "name": "permitToken",
      "outputs": [],
      "stateMutability": "nonpayable",
      "type": "function"
    },
    {
      "inputs": [
        {
          "internalType": "uint256",
          "name": "",
          "type": "uint256"
        }
      ],
      "name": "poolInfo",
      "outputs": [
        {
          "internalType": "uint128",
          "name": "accJollofPerShare",
          "type": "uint128"
        },
        {
          "internalType": "uint64",
          "name": "lastRewardBlock",
          "type": "uint64"
        },
        {
          "internalType": "uint64",
          "name": "allocPoint",
          "type": "uint64"
        }
      ],
      "stateMutability": "view",
      "type": "function",
      "constant": true
    },
    {
      "inputs": [
        {
          "internalType": "uint256",
          "name": "",
          "type": "uint256"
        }
      ],
      "name": "rewarder",
      "outputs": [
        {
          "internalType": "contract IRewarder",
          "name": "",
          "type": "address"
        }
      ],
      "stateMutability": "view",
      "type": "function",
      "constant": true
    },
    {
      "inputs": [],
      "name": "totalAllocPoint",
      "outputs": [
        {
          "internalType": "uint256",
          "name": "",
          "type": "uint256"
        }
      ],
      "stateMutability": "view",
      "type": "function",
      "constant": true
    },
    {
      "inputs": [
        {
          "internalType": "address",
          "name": "newOwner",
          "type": "address"
        },
        {
          "internalType": "bool",
          "name": "direct",
          "type": "bool"
        },
        {
          "internalType": "bool",
          "name": "renounce",
          "type": "bool"
        }
      ],
      "name": "transferOwnership",
      "outputs": [],
      "stateMutability": "nonpayable",
      "type": "function"
    },
    {
      "inputs": [
        {
          "internalType": "uint256",
          "name": "",
          "type": "uint256"
        },
        {
          "internalType": "address",
          "name": "",
          "type": "address"
        }
      ],
      "name": "userInfo",
      "outputs": [
        {
          "internalType": "uint256",
          "name": "amount",
          "type": "uint256"
        },
        {
          "internalType": "int256",
          "name": "rewardDebt",
          "type": "int256"
        }
      ],
      "stateMutability": "view",
      "type": "function",
      "constant": true
    },
    {
      "inputs": [
        {
          "internalType": "contract IERC20",
          "name": "dummyToken",
          "type": "address"
        }
      ],
      "name": "init",
      "outputs": [],
      "stateMutability": "nonpayable",
      "type": "function"
    },
    {
      "inputs": [],
      "name": "poolLength",
      "outputs": [
        {
          "internalType": "uint256",
          "name": "pools",
          "type": "uint256"
        }
      ],
      "stateMutability": "view",
      "type": "function",
      "constant": true
    },
    {
      "inputs": [
        {
          "internalType": "uint256",
          "name": "allocPoint",
          "type": "uint256"
        },
        {
          "internalType": "contract IERC20",
          "name": "_lpToken",
          "type": "address"
        },
        {
          "internalType": "contract IRewarder",
          "name": "_rewarder",
          "type": "address"
        }
      ],
      "name": "add",
      "outputs": [],
      "stateMutability": "nonpayable",
      "type": "function"
    },
    {
      "inputs": [
        {
          "internalType": "uint256",
          "name": "_pid",
          "type": "uint256"
        },
        {
          "internalType": "uint256",
          "name": "_allocPoint",
          "type": "uint256"
        },
        {
          "internalType": "contract IRewarder",
          "name": "_rewarder",
          "type": "address"
        },
        {
          "internalType": "bool",
          "name": "overwrite",
          "type": "bool"
        }
      ],
      "name": "set",
      "outputs": [],
      "stateMutability": "nonpayable",
      "type": "function"
    },
    {
      "inputs": [
        {
          "internalType": "contract IMigratorChef",
          "name": "_migrator",
          "type": "address"
        }
      ],
      "name": "setMigrator",
      "outputs": [],
      "stateMutability": "nonpayable",
      "type": "function"
    },
    {
      "inputs": [
        {
          "internalType": "uint256",
          "name": "_pid",
          "type": "uint256"
        }
      ],
      "name": "migrate",
      "outputs": [],
      "stateMutability": "nonpayable",
      "type": "function"
    },
    {
      "inputs": [
        {
          "internalType": "uint256",
          "name": "_pid",
          "type": "uint256"
        },
        {
          "internalType": "address",
          "name": "_user",
          "type": "address"
        }
      ],
      "name": "pendingJollof",
      "outputs": [
        {
          "internalType": "uint256",
          "name": "pending",
          "type": "uint256"
        }
      ],
      "stateMutability": "view",
      "type": "function",
      "constant": true
    },
    {
      "inputs": [
        {
          "internalType": "uint256[]",
          "name": "pids",
          "type": "uint256[]"
        }
      ],
      "name": "massUpdatePools",
      "outputs": [],
      "stateMutability": "nonpayable",
      "type": "function"
    },
    {
      "inputs": [],
      "name": "jollofPerBlock",
      "outputs": [
        {
          "internalType": "uint256",
          "name": "amount",
          "type": "uint256"
        }
      ],
      "stateMutability": "view",
      "type": "function",
      "constant": true
    },
    {
      "inputs": [
        {
          "internalType": "uint256",
          "name": "pid",
          "type": "uint256"
        }
      ],
      "name": "updatePool",
      "outputs": [
        {
          "components": [
            {
              "internalType": "uint128",
              "name": "accJollofPerShare",
              "type": "uint128"
            },
            {
              "internalType": "uint64",
              "name": "lastRewardBlock",
              "type": "uint64"
            },
            {
              "internalType": "uint64",
              "name": "allocPoint",
              "type": "uint64"
            }
          ],
          "internalType": "struct MamaPutV2.PoolInfo",
          "name": "pool",
          "type": "tuple"
        }
      ],
      "stateMutability": "nonpayable",
      "type": "function"
    },
    {
      "inputs": [
        {
          "internalType": "uint256",
          "name": "pid",
          "type": "uint256"
        },
        {
          "internalType": "uint256",
          "name": "amount",
          "type": "uint256"
        },
        {
          "internalType": "address",
          "name": "to",
          "type": "address"
        }
      ],
      "name": "deposit",
      "outputs": [],
      "stateMutability": "nonpayable",
      "type": "function"
    },
    {
      "inputs": [
        {
          "internalType": "uint256",
          "name": "pid",
          "type": "uint256"
        },
        {
          "internalType": "uint256",
          "name": "amount",
          "type": "uint256"
        },
        {
          "internalType": "address",
          "name": "to",
          "type": "address"
        }
      ],
      "name": "withdraw",
      "outputs": [],
      "stateMutability": "nonpayable",
      "type": "function"
    },
    {
      "inputs": [
        {
          "internalType": "uint256",
          "name": "pid",
          "type": "uint256"
        },
        {
          "internalType": "address",
          "name": "to",
          "type": "address"
        }
      ],
      "name": "harvest",
      "outputs": [],
      "stateMutability": "nonpayable",
      "type": "function"
    },
    {
      "inputs": [
        {
          "internalType": "uint256",
          "name": "pid",
          "type": "uint256"
        },
        {
          "internalType": "uint256",
          "name": "amount",
          "type": "uint256"
        },
        {
          "internalType": "address",
          "name": "to",
          "type": "address"
        }
      ],
      "name": "withdrawAndHarvest",
      "outputs": [],
      "stateMutability": "nonpayable",
      "type": "function"
    },
    {
      "inputs": [],
      "name": "harvestFromMamaPut",
      "outputs": [],
      "stateMutability": "nonpayable",
      "type": "function"
    },
    {
      "inputs": [
        {
          "internalType": "uint256",
          "name": "pid",
          "type": "uint256"
        },
        {
          "internalType": "address",
          "name": "to",
          "type": "address"
        }
      ],
      "name": "emergencyWithdraw",
      "outputs": [],
      "stateMutability": "nonpayable",
      "type": "function"
    }
  ],
  "bytecode": "0x60e06040523480156200001157600080fd5b50604051620055a7380380620055a7833981810160405281019062000037919062000196565b336000806101000a81548173ffffffffffffffffffffffffffffffffffffffff021916908373ffffffffffffffffffffffffffffffffffffffff1602179055503373ffffffffffffffffffffffffffffffffffffffff16600073ffffffffffffffffffffffffffffffffffffffff167f8be0079c531659141344cd1fd0a4f28419497f9722a3daafe3b4186f6b6457e060405160405180910390a38273ffffffffffffffffffffffffffffffffffffffff1660808173ffffffffffffffffffffffffffffffffffffffff1660601b815250508173ffffffffffffffffffffffffffffffffffffffff1660a08173ffffffffffffffffffffffffffffffffffffffff1660601b815250508060c08181525050505050620002a0565b600081519050620001628162000252565b92915050565b60008151905062000179816200026c565b92915050565b600081519050620001908162000286565b92915050565b600080600060608486031215620001ac57600080fd5b6000620001bc8682870162000168565b9350506020620001cf8682870162000151565b9250506040620001e2868287016200017f565b9150509250925092565b6000620001f98262000228565b9050919050565b60006200020d82620001ec565b9050919050565b60006200022182620001ec565b9050919050565b600073ffffffffffffffffffffffffffffffffffffffff82169050919050565b6000819050919050565b6200025d8162000200565b81146200026957600080fd5b50565b620002778162000214565b81146200028357600080fd5b50565b620002918162000248565b81146200029d57600080fd5b50565b60805160601c60a05160601c60c0516152a2620003056000398061112b528061217952806125925280612c7f5250806107475280610dbc5280612e6d52508061105d52806110ef52806124b552806125565280612c43528061329a52506152a26000f3fe6080604052600436106101d85760003560e01c806361621aaa1161010257806393f1a40b11610095578063d1abb90711610064578063d1abb90714610695578063d2423b51146106be578063db32da84146106ef578063e30c39781461071a576101d8565b806393f1a40b146105da578063ab7de09814610618578063c0e795f314610641578063c346253d14610658576101d8565b806388bba42f116100d157806388bba42f146105325780638d4de7971461055b5780638da5cb5b146105865780638dbdbe6d146105b1576101d8565b806361621aaa1461047657806378ed5d1f146104a15780637c516e94146104de5780637cd07e4714610507576101d8565b806319ab453c1161017a5780634e71e0c8116101495780634e71e0c8146103bc57806351eb05a6146103d357806356a3b6451461041057806357a5b58c1461044d576101d8565b806319ab453c1461031857806323cf3118146103415780632f940c701461036a578063454b060814610393576101d8565b80630ad58d2f116101b65780630ad58d2f1461025c5780631526fe271461028557806317caf6f1146102c457806318fccc76146102ef576101d8565b806303c02f45146101dd578063078dfbe714610208578063081e3eda14610231575b600080fd5b3480156101e957600080fd5b506101f2610745565b6040516101ff9190614921565b60405180910390f35b34801561021457600080fd5b5061022f600480360381019061022a9190613bf1565b610769565b005b34801561023d57600080fd5b506102466109bd565b6040516102539190614c01565b60405180910390f35b34801561026857600080fd5b50610283600480360381019061027e9190613f7a565b6109ca565b005b34801561029157600080fd5b506102ac60048036038101906102a79190613e9d565b610c5e565b6040516102bb93929190614bca565b60405180910390f35b3480156102d057600080fd5b506102d9610cd5565b6040516102e69190614c01565b60405180910390f35b3480156102fb57600080fd5b5061031660048036038101906103119190613eef565b610cdb565b005b34801561032457600080fd5b5061033f600480360381019061033a9190613d06565b610f41565b005b34801561034d57600080fd5b5061036860048036038101906103639190613e0a565b6111ca565b005b34801561037657600080fd5b50610391600480360381019061038c9190613eef565b61129c565b005b34801561039f57600080fd5b506103ba60048036038101906103b59190613e9d565b6114c1565b005b3480156103c857600080fd5b506103d16118a3565b005b3480156103df57600080fd5b506103fa60048036038101906103f59190613e9d565b611a37565b6040516104079190614baf565b60405180910390f35b34801561041c57600080fd5b5061043760048036038101906104329190613eef565b611e10565b6040516104449190614c01565b60405180910390f35b34801561045957600080fd5b50610474600480360381019061046f9190613c98565b612137565b005b34801561048257600080fd5b5061048b612177565b6040516104989190614c01565b60405180910390f35b3480156104ad57600080fd5b506104c860048036038101906104c39190613e9d565b61219b565b6040516104d59190614921565b60405180910390f35b3480156104ea57600080fd5b5061050560048036038101906105009190613d58565b6121d7565b005b34801561051357600080fd5b5061051c612258565b6040516105299190614957565b60405180910390f35b34801561053e57600080fd5b5061055960048036038101906105549190613fc9565b61227e565b005b34801561056757600080fd5b506105706124b1565b60405161057d9190614c01565b60405180910390f35b34801561059257600080fd5b5061059b612646565b6040516105a891906147e5565b60405180910390f35b3480156105bd57600080fd5b506105d860048036038101906105d39190613f7a565b61266a565b005b3480156105e657600080fd5b5061060160048036038101906105fc9190613eef565b612900565b60405161060f929190614d91565b60405180910390f35b34801561062457600080fd5b5061063f600480360381019061063a9190613f2b565b612931565b005b34801561064d57600080fd5b50610656612c41565b005b34801561066457600080fd5b5061067f600480360381019061067a9190613e9d565b612cf1565b60405161068c9190614972565b60405180910390f35b3480156106a157600080fd5b506106bc60048036038101906106b79190613f7a565b612d2d565b005b6106d860048036038101906106d39190613c40565b6130ba565b6040516106e69291906148ea565b60405180910390f35b3480156106fb57600080fd5b50610704613298565b604051610711919061493c565b60405180910390f35b34801561072657600080fd5b5061072f6132bc565b60405161073c91906147e5565b60405180910390f35b7f000000000000000000000000000000000000000000000000000000000000000081565b60008054906101000a900473ffffffffffffffffffffffffffffffffffffffff1673ffffffffffffffffffffffffffffffffffffffff163373ffffffffffffffffffffffffffffffffffffffff16146107f7576040517f08c379a00000000000000000000000000000000000000000000000000000000081526004016107ee90614aef565b60405180910390fd5b811561097657600073ffffffffffffffffffffffffffffffffffffffff168373ffffffffffffffffffffffffffffffffffffffff161415806108365750805b610875576040517f08c379a000000000000000000000000000000000000000000000000000000000815260040161086c90614a8f565b60405180910390fd5b8273ffffffffffffffffffffffffffffffffffffffff1660008054906101000a900473ffffffffffffffffffffffffffffffffffffffff1673ffffffffffffffffffffffffffffffffffffffff167f8be0079c531659141344cd1fd0a4f28419497f9722a3daafe3b4186f6b6457e060405160405180910390a3826000806101000a81548173ffffffffffffffffffffffffffffffffffffffff021916908373ffffffffffffffffffffffffffffffffffffffff1602179055506000600160006101000a81548173ffffffffffffffffffffffffffffffffffffffff021916908373ffffffffffffffffffffffffffffffffffffffff1602179055506109b8565b82600160006101000a81548173ffffffffffffffffffffffffffffffffffffffff021916908373ffffffffffffffffffffffffffffffffffffffff1602179055505b505050565b6000600380549050905090565b6109d2613967565b6109db84611a37565b905060006006600086815260200190815260200160002060003373ffffffffffffffffffffffffffffffffffffffff1673ffffffffffffffffffffffffffffffffffffffff1681526020019081526020016000209050610a7e64e8d4a51000610a6384600001516fffffffffffffffffffffffffffffffff16876132e290919063ffffffff16565b81610a6a57fe5b04826001015461334490919063ffffffff16565b8160010181905550610a9d8482600001546133bc90919063ffffffff16565b8160000181905550600060058681548110610ab457fe5b9060005260206000200160009054906101000a900473ffffffffffffffffffffffffffffffffffffffff169050600073ffffffffffffffffffffffffffffffffffffffff168173ffffffffffffffffffffffffffffffffffffffff1614610b8e578073ffffffffffffffffffffffffffffffffffffffff16631f56fa8f873387600087600001546040518663ffffffff1660e01b8152600401610b5b959493929190614c6f565b600060405180830381600087803b158015610b7557600080fd5b505af1158015610b89573d6000803e3d6000fd5b505050505b610bf0848660048981548110610ba057fe5b9060005260206000200160009054906101000a900473ffffffffffffffffffffffffffffffffffffffff1673ffffffffffffffffffffffffffffffffffffffff1661340c9092919063ffffffff16565b8373ffffffffffffffffffffffffffffffffffffffff16863373ffffffffffffffffffffffffffffffffffffffff167f8166bf25f8a2b7ed3c85049207da4358d16edbed977d23fa2ee6f0dde3ec213288604051610c4e9190614c01565b60405180910390a4505050505050565b60038181548110610c6b57fe5b906000526020600020016000915090508060000160009054906101000a90046fffffffffffffffffffffffffffffffff16908060000160109054906101000a900467ffffffffffffffff16908060000160189054906101000a900467ffffffffffffffff16905083565b60075481565b610ce3613967565b610cec83611a37565b905060006006600085815260200190815260200160002060003373ffffffffffffffffffffffffffffffffffffffff1673ffffffffffffffffffffffffffffffffffffffff1681526020019081526020016000209050600064e8d4a51000610d7784600001516fffffffffffffffffffffffffffffffff1684600001546132e290919063ffffffff16565b81610d7e57fe5b0490506000610da2610d9d84600101548461334490919063ffffffff16565b613543565b905081836001018190555060008114610e0157610e0085827f000000000000000000000000000000000000000000000000000000000000000073ffffffffffffffffffffffffffffffffffffffff1661340c9092919063ffffffff16565b5b600060058781548110610e1057fe5b9060005260206000200160009054906101000a900473ffffffffffffffffffffffffffffffffffffffff169050600073ffffffffffffffffffffffffffffffffffffffff168173ffffffffffffffffffffffffffffffffffffffff1614610ee9578073ffffffffffffffffffffffffffffffffffffffff16631f56fa8f8833898689600001546040518663ffffffff1660e01b8152600401610eb6959493929190614cc2565b600060405180830381600087803b158015610ed057600080fd5b505af1158015610ee4573d6000803e3d6000fd5b505050505b863373ffffffffffffffffffffffffffffffffffffffff167f71bab65ced2e5750775a0613be067df48ef06cf92a496ebf7663ae066092495484604051610f309190614c01565b60405180910390a350505050505050565b60008173ffffffffffffffffffffffffffffffffffffffff166370a08231336040518263ffffffff1660e01b8152600401610f7c9190614800565b60206040518083038186803b158015610f9457600080fd5b505afa158015610fa8573d6000803e3d6000fd5b505050506040513d601f19601f82011682018060405250810190610fcc9190613ec6565b90506000811415611012576040517f08c379a000000000000000000000000000000000000000000000000000000000815260040161100990614a0f565b60405180910390fd5b61103f3330838573ffffffffffffffffffffffffffffffffffffffff16613590909392919063ffffffff16565b8173ffffffffffffffffffffffffffffffffffffffff1663095ea7b37f0000000000000000000000000000000000000000000000000000000000000000836040518363ffffffff1660e01b815260040161109a9291906148c1565b602060405180830381600087803b1580156110b457600080fd5b505af11580156110c8573d6000803e3d6000fd5b505050506040513d601f19601f820116820180604052508101906110ec9190613cdd565b507f000000000000000000000000000000000000000000000000000000000000000073ffffffffffffffffffffffffffffffffffffffff1663e2bbb1587f0000000000000000000000000000000000000000000000000000000000000000836040518363ffffffff1660e01b8152600401611168929190614de3565b600060405180830381600087803b15801561118257600080fd5b505af1158015611196573d6000803e3d6000fd5b505050507f98a9bd3b7a617581fc53b1e2992534e0e0cb5091c9d44aa1a7fc978f706caa8360405160405180910390a15050565b60008054906101000a900473ffffffffffffffffffffffffffffffffffffffff1673ffffffffffffffffffffffffffffffffffffffff163373ffffffffffffffffffffffffffffffffffffffff1614611258576040517f08c379a000000000000000000000000000000000000000000000000000000000815260040161124f90614aef565b60405180910390fd5b80600260006101000a81548173ffffffffffffffffffffffffffffffffffffffff021916908373ffffffffffffffffffffffffffffffffffffffff16021790555050565b60006006600084815260200190815260200160002060003373ffffffffffffffffffffffffffffffffffffffff1673ffffffffffffffffffffffffffffffffffffffff1681526020019081526020016000209050600081600001549050600082600001819055506000826001018190555060006005858154811061131c57fe5b9060005260206000200160009054906101000a900473ffffffffffffffffffffffffffffffffffffffff169050600073ffffffffffffffffffffffffffffffffffffffff168173ffffffffffffffffffffffffffffffffffffffff16146113f2578073ffffffffffffffffffffffffffffffffffffffff16631f56fa8f8633876000806040518663ffffffff1660e01b81526004016113bf959493929190614c1c565b600060405180830381600087803b1580156113d957600080fd5b505af11580156113ed573d6000803e3d6000fd5b505050505b61145484836004888154811061140457fe5b9060005260206000200160009054906101000a900473ffffffffffffffffffffffffffffffffffffffff1673ffffffffffffffffffffffffffffffffffffffff1661340c9092919063ffffffff16565b8373ffffffffffffffffffffffffffffffffffffffff16853373ffffffffffffffffffffffffffffffffffffffff167f2cac5e20e1541d836381527a43f651851e302817b71dc8e810284e69210c1c6b856040516114b29190614c01565b60405180910390a45050505050565b600073ffffffffffffffffffffffffffffffffffffffff16600260009054906101000a900473ffffffffffffffffffffffffffffffffffffffff1673ffffffffffffffffffffffffffffffffffffffff161415611553576040517f08c379a000000000000000000000000000000000000000000000000000000000815260040161154a90614a2f565b60405180910390fd5b60006004828154811061156257fe5b9060005260206000200160009054906101000a900473ffffffffffffffffffffffffffffffffffffffff16905060008173ffffffffffffffffffffffffffffffffffffffff166370a08231306040518263ffffffff1660e01b81526004016115ca91906147e5565b60206040518083038186803b1580156115e257600080fd5b505afa1580156115f6573d6000803e3d6000fd5b505050506040513d601f19601f8201168201806040525081019061161a9190613ec6565b90508173ffffffffffffffffffffffffffffffffffffffff1663095ea7b3600260009054906101000a900473ffffffffffffffffffffffffffffffffffffffff16836040518363ffffffff1660e01b81526004016116799291906148c1565b602060405180830381600087803b15801561169357600080fd5b505af11580156116a7573d6000803e3d6000fd5b505050506040513d601f19601f820116820180604052508101906116cb9190613cdd565b506000600260009054906101000a900473ffffffffffffffffffffffffffffffffffffffff1673ffffffffffffffffffffffffffffffffffffffff1663ce5494bb846040518263ffffffff1660e01b81526004016117299190614921565b602060405180830381600087803b15801561174357600080fd5b505af1158015611757573d6000803e3d6000fd5b505050506040513d601f19601f8201168201806040525081019061177b9190613d2f565b90508073ffffffffffffffffffffffffffffffffffffffff166370a08231306040518263ffffffff1660e01b81526004016117b691906147e5565b60206040518083038186803b1580156117ce57600080fd5b505afa1580156117e2573d6000803e3d6000fd5b505050506040513d601f19601f820116820180604052508101906118069190613ec6565b8214611847576040517f08c379a000000000000000000000000000000000000000000000000000000000815260040161183e90614a4f565b60405180910390fd5b806004858154811061185557fe5b9060005260206000200160006101000a81548173ffffffffffffffffffffffffffffffffffffffff021916908373ffffffffffffffffffffffffffffffffffffffff16021790555050505050565b6000600160009054906101000a900473ffffffffffffffffffffffffffffffffffffffff1690508073ffffffffffffffffffffffffffffffffffffffff163373ffffffffffffffffffffffffffffffffffffffff1614611938576040517f08c379a000000000000000000000000000000000000000000000000000000000815260040161192f90614b0f565b60405180910390fd5b8073ffffffffffffffffffffffffffffffffffffffff1660008054906101000a900473ffffffffffffffffffffffffffffffffffffffff1673ffffffffffffffffffffffffffffffffffffffff167f8be0079c531659141344cd1fd0a4f28419497f9722a3daafe3b4186f6b6457e060405160405180910390a3806000806101000a81548173ffffffffffffffffffffffffffffffffffffffff021916908373ffffffffffffffffffffffffffffffffffffffff1602179055506000600160006101000a81548173ffffffffffffffffffffffffffffffffffffffff021916908373ffffffffffffffffffffffffffffffffffffffff16021790555050565b611a3f613967565b60038281548110611a4c57fe5b906000526020600020016040518060600160405290816000820160009054906101000a90046fffffffffffffffffffffffffffffffff166fffffffffffffffffffffffffffffffff166fffffffffffffffffffffffffffffffff1681526020016000820160109054906101000a900467ffffffffffffffff1667ffffffffffffffff1667ffffffffffffffff1681526020016000820160189054906101000a900467ffffffffffffffff1667ffffffffffffffff1667ffffffffffffffff16815250509050806020015167ffffffffffffffff16431115611e0b57600060048381548110611b3657fe5b9060005260206000200160009054906101000a900473ffffffffffffffffffffffffffffffffffffffff1673ffffffffffffffffffffffffffffffffffffffff166370a08231306040518263ffffffff1660e01b8152600401611b9991906147e5565b60206040518083038186803b158015611bb157600080fd5b505afa158015611bc5573d6000803e3d6000fd5b505050506040513d601f19601f82011682018060405250810190611be99190613ec6565b90506000811115611ce5576000611c17836020015167ffffffffffffffff16436133bc90919063ffffffff16565b90506000600754611c58856040015167ffffffffffffffff16611c4a611c3b6124b1565b866132e290919063ffffffff16565b6132e290919063ffffffff16565b81611c5f57fe5b049050611cb3611c8e84611c8164e8d4a51000856132e290919063ffffffff16565b81611c8857fe5b046136ca565b85600001516fffffffffffffffffffffffffffffffff1661374990919063ffffffff16565b84600001906fffffffffffffffffffffffffffffffff1690816fffffffffffffffffffffffffffffffff168152505050505b611cee436137bd565b826020019067ffffffffffffffff16908167ffffffffffffffff16815250508160038481548110611d1b57fe5b9060005260206000200160008201518160000160006101000a8154816fffffffffffffffffffffffffffffffff02191690836fffffffffffffffffffffffffffffffff16021790555060208201518160000160106101000a81548167ffffffffffffffff021916908367ffffffffffffffff16021790555060408201518160000160186101000a81548167ffffffffffffffff021916908367ffffffffffffffff160217905550905050827f0fc9545022a542541ad085d091fb09a2ab36fee366a4576ab63714ea907ad3538360200151838560000151604051611e0193929190614e0c565b60405180910390a2505b919050565b6000611e1a613967565b60038481548110611e2757fe5b906000526020600020016040518060600160405290816000820160009054906101000a90046fffffffffffffffffffffffffffffffff166fffffffffffffffffffffffffffffffff166fffffffffffffffffffffffffffffffff1681526020016000820160109054906101000a900467ffffffffffffffff1667ffffffffffffffff1667ffffffffffffffff1681526020016000820160189054906101000a900467ffffffffffffffff1667ffffffffffffffff1667ffffffffffffffff1681525050905060006006600086815260200190815260200160002060008573ffffffffffffffffffffffffffffffffffffffff1673ffffffffffffffffffffffffffffffffffffffff1681526020019081526020016000209050600082600001516fffffffffffffffffffffffffffffffff169050600060048781548110611f6a57fe5b9060005260206000200160009054906101000a900473ffffffffffffffffffffffffffffffffffffffff1673ffffffffffffffffffffffffffffffffffffffff166370a08231306040518263ffffffff1660e01b8152600401611fcd91906147e5565b60206040518083038186803b158015611fe557600080fd5b505afa158015611ff9573d6000803e3d6000fd5b505050506040513d601f19601f8201168201806040525081019061201d9190613ec6565b9050836020015167ffffffffffffffff164311801561203d575060008114155b156120e8576000612065856020015167ffffffffffffffff16436133bc90919063ffffffff16565b905060006007546120a6876040015167ffffffffffffffff166120986120896124b1565b866132e290919063ffffffff16565b6132e290919063ffffffff16565b816120ad57fe5b0490506120e3836120cc64e8d4a51000846132e290919063ffffffff16565b816120d357fe5b048561383490919063ffffffff16565b935050505b61212b612126846001015464e8d4a510006121108688600001546132e290919063ffffffff16565b8161211757fe5b0461334490919063ffffffff16565b613543565b94505050505092915050565b600082829050905060005b818110156121715761216584848381811061215957fe5b90506020020135611a37565b50806001019050612142565b50505050565b7f000000000000000000000000000000000000000000000000000000000000000081565b600481815481106121a857fe5b906000526020600020016000915054906101000a900473ffffffffffffffffffffffffffffffffffffffff1681565b8773ffffffffffffffffffffffffffffffffffffffff1663d505accf888888888888886040518863ffffffff1660e01b815260040161221c9796959493929190614852565b600060405180830381600087803b15801561223657600080fd5b505af115801561224a573d6000803e3d6000fd5b505050505050505050505050565b600260009054906101000a900473ffffffffffffffffffffffffffffffffffffffff1681565b60008054906101000a900473ffffffffffffffffffffffffffffffffffffffff1673ffffffffffffffffffffffffffffffffffffffff163373ffffffffffffffffffffffffffffffffffffffff161461230c576040517f08c379a000000000000000000000000000000000000000000000000000000000815260040161230390614aef565b60405180910390fd5b61236b8361235d6003878154811061232057fe5b9060005260206000200160000160189054906101000a900467ffffffffffffffff1667ffffffffffffffff166007546133bc90919063ffffffff16565b61383490919063ffffffff16565b60078190555061237a836137bd565b6003858154811061238757fe5b9060005260206000200160000160186101000a81548167ffffffffffffffff021916908367ffffffffffffffff16021790555080156124175781600585815481106123ce57fe5b9060005260206000200160006101000a81548173ffffffffffffffffffffffffffffffffffffffff021916908373ffffffffffffffffffffffffffffffffffffffff1602179055505b80612459576005848154811061242957fe5b9060005260206000200160009054906101000a900473ffffffffffffffffffffffffffffffffffffffff1661245b565b815b73ffffffffffffffffffffffffffffffffffffffff16847f95895a6ab1df54420d241b55243258a33e61b2194db66c1179ec521aae8e186585846040516124a3929190614d68565b60405180910390a350505050565b60007f000000000000000000000000000000000000000000000000000000000000000073ffffffffffffffffffffffffffffffffffffffff166317caf6f16040518163ffffffff1660e01b815260040160206040518083038186803b15801561251957600080fd5b505afa15801561252d573d6000803e3d6000fd5b505050506040513d601f19601f820116820180604052508101906125519190613ec6565b6126397f000000000000000000000000000000000000000000000000000000000000000073ffffffffffffffffffffffffffffffffffffffff16631526fe277f00000000000000000000000000000000000000000000000000000000000000006040518263ffffffff1660e01b81526004016125cd9190614c01565b60806040518083038186803b1580156125e557600080fd5b505afa1580156125f9573d6000803e3d6000fd5b505050506040513d601f19601f8201168201806040525081019061261d9190613e74565b6020015168056bc75e2d631000006132e290919063ffffffff16565b8161264057fe5b04905090565b60008054906101000a900473ffffffffffffffffffffffffffffffffffffffff1681565b612672613967565b61267b84611a37565b905060006006600086815260200190815260200160002060008473ffffffffffffffffffffffffffffffffffffffff1673ffffffffffffffffffffffffffffffffffffffff16815260200190815260200160002090506126e884826000015461383490919063ffffffff16565b816000018190555061273d64e8d4a5100061272284600001516fffffffffffffffffffffffffffffffff16876132e290919063ffffffff16565b8161272957fe5b04826001015461388490919063ffffffff16565b816001018190555060006005868154811061275457fe5b9060005260206000200160009054906101000a900473ffffffffffffffffffffffffffffffffffffffff169050600073ffffffffffffffffffffffffffffffffffffffff168173ffffffffffffffffffffffffffffffffffffffff161461282e578073ffffffffffffffffffffffffffffffffffffffff16631f56fa8f878687600087600001546040518663ffffffff1660e01b81526004016127fb959493929190614d15565b600060405180830381600087803b15801561281557600080fd5b505af1158015612829573d6000803e3d6000fd5b505050505b61289233308760048a8154811061284157fe5b9060005260206000200160009054906101000a900473ffffffffffffffffffffffffffffffffffffffff1673ffffffffffffffffffffffffffffffffffffffff16613590909392919063ffffffff16565b8373ffffffffffffffffffffffffffffffffffffffff16863373ffffffffffffffffffffffffffffffffffffffff167f02d7e648dd130fc184d383e55bb126ac4c9c60e8f94bf05acdf557ba2d540b47886040516128f09190614c01565b60405180910390a4505050505050565b6006602052816000526040600020602052806000526040600020600091509150508060000154908060010154905082565b60008054906101000a900473ffffffffffffffffffffffffffffffffffffffff1673ffffffffffffffffffffffffffffffffffffffff163373ffffffffffffffffffffffffffffffffffffffff16146129bf576040517f08c379a00000000000000000000000000000000000000000000000000000000081526004016129b690614aef565b60405180910390fd5b60004390506129d98460075461383490919063ffffffff16565b6007819055506004839080600181540180825580915050600190039060005260206000200160009091909190916101000a81548173ffffffffffffffffffffffffffffffffffffffff021916908373ffffffffffffffffffffffffffffffffffffffff1602179055506005829080600181540180825580915050600190039060005260206000200160009091909190916101000a81548173ffffffffffffffffffffffffffffffffffffffff021916908373ffffffffffffffffffffffffffffffffffffffff1602179055506003604051806060016040528060006fffffffffffffffffffffffffffffffff168152602001612ad4846137bd565b67ffffffffffffffff168152602001612aec876137bd565b67ffffffffffffffff168152509080600181540180825580915050600190039060005260206000200160009091909190915060008201518160000160006101000a8154816fffffffffffffffffffffffffffffffff02191690836fffffffffffffffffffffffffffffffff16021790555060208201518160000160106101000a81548167ffffffffffffffff021916908367ffffffffffffffff16021790555060408201518160000160186101000a81548167ffffffffffffffff021916908367ffffffffffffffff16021790555050508173ffffffffffffffffffffffffffffffffffffffff168373ffffffffffffffffffffffffffffffffffffffff16612c0460016004805490506133bc90919063ffffffff16565b7f81ee0f8c5c46e2cb41984886f77a84181724abb86c32a5f6de539b07509d45e587604051612c339190614c01565b60405180910390a450505050565b7f000000000000000000000000000000000000000000000000000000000000000073ffffffffffffffffffffffffffffffffffffffff1663e2bbb1587f000000000000000000000000000000000000000000000000000000000000000060006040518363ffffffff1660e01b8152600401612cbd929190614dba565b600060405180830381600087803b158015612cd757600080fd5b505af1158015612ceb573d6000803e3d6000fd5b50505050565b60058181548110612cfe57fe5b906000526020600020016000915054906101000a900473ffffffffffffffffffffffffffffffffffffffff1681565b612d35613967565b612d3e84611a37565b905060006006600086815260200190815260200160002060003373ffffffffffffffffffffffffffffffffffffffff1673ffffffffffffffffffffffffffffffffffffffff1681526020019081526020016000209050600064e8d4a51000612dc984600001516fffffffffffffffffffffffffffffffff1684600001546132e290919063ffffffff16565b81612dd057fe5b0490506000612df4612def84600101548461334490919063ffffffff16565b613543565b9050612e3f64e8d4a51000612e2886600001516fffffffffffffffffffffffffffffffff16896132e290919063ffffffff16565b81612e2f57fe5b048361334490919063ffffffff16565b8360010181905550612e5e8684600001546133bc90919063ffffffff16565b8360000181905550612eb185827f000000000000000000000000000000000000000000000000000000000000000073ffffffffffffffffffffffffffffffffffffffff1661340c9092919063ffffffff16565b600060058881548110612ec057fe5b9060005260206000200160009054906101000a900473ffffffffffffffffffffffffffffffffffffffff169050600073ffffffffffffffffffffffffffffffffffffffff168173ffffffffffffffffffffffffffffffffffffffff1614612f99578073ffffffffffffffffffffffffffffffffffffffff16631f56fa8f8933898689600001546040518663ffffffff1660e01b8152600401612f66959493929190614cc2565b600060405180830381600087803b158015612f8057600080fd5b505af1158015612f94573d6000803e3d6000fd5b505050505b612ffb868860048b81548110612fab57fe5b9060005260206000200160009054906101000a900473ffffffffffffffffffffffffffffffffffffffff1673ffffffffffffffffffffffffffffffffffffffff1661340c9092919063ffffffff16565b8573ffffffffffffffffffffffffffffffffffffffff16883373ffffffffffffffffffffffffffffffffffffffff167f8166bf25f8a2b7ed3c85049207da4358d16edbed977d23fa2ee6f0dde3ec21328a6040516130599190614c01565b60405180910390a4873373ffffffffffffffffffffffffffffffffffffffff167f71bab65ced2e5750775a0613be067df48ef06cf92a496ebf7663ae0660924954846040516130a89190614c01565b60405180910390a35050505050505050565b6060808484905067ffffffffffffffff811180156130d757600080fd5b506040519080825280602002602001820160405280156131065781602001602082028036833780820191505090505b5091508484905067ffffffffffffffff8111801561312357600080fd5b5060405190808252806020026020018201604052801561315757816020015b60608152602001906001900390816131425790505b50905060005b8585905081101561328f57600060603073ffffffffffffffffffffffffffffffffffffffff1688888581811061318f57fe5b90506020028101906131a19190614e43565b6040516131af9291906147b5565b600060405180830381855af49150503d80600081146131ea576040519150601f19603f3d011682016040523d82523d6000602084013e6131ef565b606091505b509150915081806131fe575085155b613207826138fc565b90613248576040517f08c379a000000000000000000000000000000000000000000000000000000000815260040161323f919061498d565b60405180910390fd5b508185848151811061325657fe5b6020026020010190151590811515815250508084848151811061327557fe5b60200260200101819052505050808060010191505061315d565b50935093915050565b7f000000000000000000000000000000000000000000000000000000000000000081565b600160009054906101000a900473ffffffffffffffffffffffffffffffffffffffff1681565b6000808214806132ff57508282838502925082816132fc57fe5b04145b61333e576040517f08c379a000000000000000000000000000000000000000000000000000000000815260040161333590614b8f565b60405180910390fd5b92915050565b60008082840390506000831215801561335d5750838113155b80613373575060008312801561337257508381135b5b6133b2576040517f08c379a00000000000000000000000000000000000000000000000000000000081526004016133a990614b4f565b60405180910390fd5b8091505092915050565b6000828284039150811115613406576040517f08c379a00000000000000000000000000000000000000000000000000000000081526004016133fd906149af565b60405180910390fd5b92915050565b600060608473ffffffffffffffffffffffffffffffffffffffff1663a9059cbb858560405160240161343f9291906148c1565b6040516020818303038152906040529060e01b6020820180517bffffffffffffffffffffffffffffffffffffffffffffffffffffffff838183161783525050505060405161348d91906147ce565b6000604051808303816000865af19150503d80600081146134ca576040519150601f19603f3d011682016040523d82523d6000602084013e6134cf565b606091505b50915091508180156134fd57506000815114806134fc5750808060200190518101906134fb9190613cdd565b5b5b61353c576040517f08c379a0000000000000000000000000000000000000000000000000000000008152600401613533906149ef565b60405180910390fd5b5050505050565b600080821215613588576040517f08c379a000000000000000000000000000000000000000000000000000000000815260040161357f906149cf565b60405180910390fd5b819050919050565b600060608573ffffffffffffffffffffffffffffffffffffffff166323b872dd8686866040516024016135c59392919061481b565b6040516020818303038152906040529060e01b6020820180517bffffffffffffffffffffffffffffffffffffffffffffffffffffffff838183161783525050505060405161361391906147ce565b6000604051808303816000865af19150503d8060008114613650576040519150601f19603f3d011682016040523d82523d6000602084013e613655565b606091505b509150915081801561368357506000815114806136825750808060200190518101906136819190613cdd565b5b5b6136c2576040517f08c379a00000000000000000000000000000000000000000000000000000000081526004016136b990614b6f565b60405180910390fd5b505050505050565b60007fffffffffffffffffffffffffffffffffffffffffffffffffffffffffffffffff6fffffffffffffffffffffffffffffffff16821115613741576040517f08c379a000000000000000000000000000000000000000000000000000000000815260040161373890614aaf565b60405180910390fd5b819050919050565b6000816fffffffffffffffffffffffffffffffff168284019150816fffffffffffffffffffffffffffffffff1610156137b7576040517f08c379a00000000000000000000000000000000000000000000000000000000081526004016137ae90614acf565b60405180910390fd5b92915050565b60007fffffffffffffffffffffffffffffffffffffffffffffffffffffffffffffffff67ffffffffffffffff1682111561382c576040517f08c379a000000000000000000000000000000000000000000000000000000000815260040161382390614b2f565b60405180910390fd5b819050919050565b600081828401915081101561387e576040517f08c379a000000000000000000000000000000000000000000000000000000000815260040161387590614acf565b60405180910390fd5b92915050565b60008082840190506000831215801561389d5750838112155b806138b357506000831280156138b257508381125b5b6138f2576040517f08c379a00000000000000000000000000000000000000000000000000000000081526004016138e990614a6f565b60405180910390fd5b8091505092915050565b6060604482511015613945576040518060400160405280601d81526020017f5472616e73616374696f6e2072657665727465642073696c656e746c790000008152509050613962565b6004820191508180602001905181019061395f9190613e33565b90505b919050565b604051806060016040528060006fffffffffffffffffffffffffffffffff168152602001600067ffffffffffffffff168152602001600067ffffffffffffffff1681525090565b6000813590506139bd816151b4565b92915050565b60008083601f8401126139d557600080fd5b8235905067ffffffffffffffff8111156139ee57600080fd5b602083019150836020820283011115613a0657600080fd5b9250929050565b60008083601f840112613a1f57600080fd5b8235905067ffffffffffffffff811115613a3857600080fd5b602083019150836020820283011115613a5057600080fd5b9250929050565b600081359050613a66816151cb565b92915050565b600081519050613a7b816151cb565b92915050565b600081359050613a90816151e2565b92915050565b600081359050613aa5816151f9565b92915050565b600081519050613aba816151f9565b92915050565b600081359050613acf81615210565b92915050565b600081359050613ae481615227565b92915050565b600082601f830112613afb57600080fd5b8151613b0e613b0982614ec7565b614e9a565b91508082526020830160208301858383011115613b2a57600080fd5b613b35838284615170565b50505092915050565b600060808284031215613b5057600080fd5b613b5a6080614e9a565b90506000613b6a84828501613aab565b6000830152506020613b7e84828501613bc7565b6020830152506040613b9284828501613bc7565b6040830152506060613ba684828501613bc7565b60608301525092915050565b600081359050613bc18161523e565b92915050565b600081519050613bd68161523e565b92915050565b600081359050613beb81615255565b92915050565b600080600060608486031215613c0657600080fd5b6000613c14868287016139ae565b9350506020613c2586828701613a57565b9250506040613c3686828701613a57565b9150509250925092565b600080600060408486031215613c5557600080fd5b600084013567ffffffffffffffff811115613c6f57600080fd5b613c7b868287016139c3565b93509350506020613c8e86828701613a57565b9150509250925092565b60008060208385031215613cab57600080fd5b600083013567ffffffffffffffff811115613cc557600080fd5b613cd185828601613a0d565b92509250509250929050565b600060208284031215613cef57600080fd5b6000613cfd84828501613a6c565b91505092915050565b600060208284031215613d1857600080fd5b6000613d2684828501613a96565b91505092915050565b600060208284031215613d4157600080fd5b6000613d4f84828501613aab565b91505092915050565b600080600080600080600080610100898b031215613d7557600080fd5b6000613d838b828c01613a96565b9850506020613d948b828c016139ae565b9750506040613da58b828c016139ae565b9650506060613db68b828c01613bb2565b9550506080613dc78b828c01613bb2565b94505060a0613dd88b828c01613bdc565b93505060c0613de98b828c01613a81565b92505060e0613dfa8b828c01613a81565b9150509295985092959890939650565b600060208284031215613e1c57600080fd5b6000613e2a84828501613ac0565b91505092915050565b600060208284031215613e4557600080fd5b600082015167ffffffffffffffff811115613e5f57600080fd5b613e6b84828501613aea565b91505092915050565b600060808284031215613e8657600080fd5b6000613e9484828501613b3e565b91505092915050565b600060208284031215613eaf57600080fd5b6000613ebd84828501613bb2565b91505092915050565b600060208284031215613ed857600080fd5b6000613ee684828501613bc7565b91505092915050565b60008060408385031215613f0257600080fd5b6000613f1085828601613bb2565b9250506020613f21858286016139ae565b9150509250929050565b600080600060608486031215613f4057600080fd5b6000613f4e86828701613bb2565b9350506020613f5f86828701613a96565b9250506040613f7086828701613ad5565b9150509250925092565b600080600060608486031215613f8f57600080fd5b6000613f9d86828701613bb2565b9350506020613fae86828701613bb2565b9250506040613fbf868287016139ae565b9150509250925092565b60008060008060808587031215613fdf57600080fd5b6000613fed87828801613bb2565b9450506020613ffe87828801613bb2565b935050604061400f87828801613ad5565b925050606061402087828801613a57565b91505092959194509250565b60006140388383614149565b60208301905092915050565b6000614050838361419b565b905092915050565b61406181615077565b82525050565b61407081614fa8565b82525050565b600061408182614f13565b61408b8185614f59565b935061409683614ef3565b8060005b838110156140c75781516140ae888261402c565b97506140b983614f3f565b92505060018101905061409a565b5085935050505092915050565b60006140df82614f1e565b6140e98185614f6a565b9350836020820285016140fb85614f03565b8060005b8581101561413757848403895281516141188582614044565b945061412383614f4c565b925060208a019950506001810190506140ff565b50829750879550505050505092915050565b61415281614fba565b82525050565b61416181614fba565b82525050565b61417081614fc6565b82525050565b60006141828385614f8c565b935061418f838584615161565b82840190509392505050565b60006141a682614f29565b6141b08185614f7b565b93506141c0818560208601615170565b6141c9816151a3565b840191505092915050565b60006141df82614f29565b6141e98185614f8c565b93506141f9818560208601615170565b80840191505092915050565b61420e81615089565b82525050565b61421d816150ad565b82525050565b61422c816150d1565b82525050565b61423b816150f5565b82525050565b61424a81615006565b82525050565b61425981615119565b82525050565b600061426a82614f34565b6142748185614f97565b9350614284818560208601615170565b61428d816151a3565b840191505092915050565b60006142a5601583614f97565b91507f426f72696e674d6174683a20556e646572666c6f7700000000000000000000006000830152602082019050919050565b60006142e5600b83614f97565b91507f496e7465676572203c20300000000000000000000000000000000000000000006000830152602082019050919050565b6000614325601c83614f97565b91507f426f72696e6745524332303a205472616e73666572206661696c6564000000006000830152602082019050919050565b6000614365602083614f97565b91507f4d616d6150757456323a2042616c616e6365206d7573742065786365656420306000830152602082019050919050565b60006143a5601a83614f97565b91507f4d616d6150757456323a206e6f206d69677261746f72207365740000000000006000830152602082019050919050565b60006143e5602683614f97565b91507f4d616d6150757456323a206d696772617465642062616c616e6365206d75737460008301527f206d6174636800000000000000000000000000000000000000000000000000006020830152604082019050919050565b600061444b602183614f97565b91507f5369676e6564536166654d6174683a206164646974696f6e206f766572666c6f60008301527f77000000000000000000000000000000000000000000000000000000000000006020830152604082019050919050565b60006144b1601583614f97565b91507f4f776e61626c653a207a65726f206164647265737300000000000000000000006000830152602082019050919050565b60006144f1601c83614f97565b91507f426f72696e674d6174683a2075696e74313238204f766572666c6f77000000006000830152602082019050919050565b6000614531601883614f97565b91507f426f72696e674d6174683a20416464204f766572666c6f7700000000000000006000830152602082019050919050565b6000614571602083614f97565b91507f4f776e61626c653a2063616c6c6572206973206e6f7420746865206f776e65726000830152602082019050919050565b60006145b1602083614f97565b91507f4f776e61626c653a2063616c6c657220213d2070656e64696e67206f776e65726000830152602082019050919050565b60006145f1601b83614f97565b91507f426f72696e674d6174683a2075696e743634204f766572666c6f7700000000006000830152602082019050919050565b6000614631602483614f97565b91507f5369676e6564536166654d6174683a207375627472616374696f6e206f76657260008301527f666c6f77000000000000000000000000000000000000000000000000000000006020830152604082019050919050565b6000614697602083614f97565b91507f426f72696e6745524332303a205472616e7366657246726f6d206661696c65646000830152602082019050919050565b60006146d7601883614f97565b91507f426f72696e674d6174683a204d756c204f766572666c6f7700000000000000006000830152602082019050919050565b606082016000820151614720600085018261474c565b5060208201516147336020850182614788565b5060408201516147466040850182614788565b50505050565b61475581615010565b82525050565b61476481615010565b82525050565b6147738161512b565b82525050565b6147828161504c565b82525050565b61479181615056565b82525050565b6147a081615056565b82525050565b6147af8161506a565b82525050565b60006147c2828486614176565b91508190509392505050565b60006147da82846141d4565b915081905092915050565b60006020820190506147fa6000830184614067565b92915050565b60006020820190506148156000830184614058565b92915050565b60006060820190506148306000830186614067565b61483d6020830185614067565b61484a6040830184614779565b949350505050565b600060e082019050614867600083018a614067565b6148746020830189614067565b6148816040830188614779565b61488e6060830187614779565b61489b60808301866147a6565b6148a860a0830185614167565b6148b560c0830184614167565b98975050505050505050565b60006040820190506148d66000830185614067565b6148e36020830184614779565b9392505050565b600060408201905081810360008301526149048185614076565b9050818103602083015261491881846140d4565b90509392505050565b60006020820190506149366000830184614205565b92915050565b60006020820190506149516000830184614214565b92915050565b600060208201905061496c6000830184614223565b92915050565b60006020820190506149876000830184614232565b92915050565b600060208201905081810360008301526149a7818461425f565b905092915050565b600060208201905081810360008301526149c881614298565b9050919050565b600060208201905081810360008301526149e8816142d8565b9050919050565b60006020820190508181036000830152614a0881614318565b9050919050565b60006020820190508181036000830152614a2881614358565b9050919050565b60006020820190508181036000830152614a4881614398565b9050919050565b60006020820190508181036000830152614a68816143d8565b9050919050565b60006020820190508181036000830152614a888161443e565b9050919050565b60006020820190508181036000830152614aa8816144a4565b9050919050565b60006020820190508181036000830152614ac8816144e4565b9050919050565b60006020820190508181036000830152614ae881614524565b9050919050565b60006020820190508181036000830152614b0881614564565b9050919050565b60006020820190508181036000830152614b28816145a4565b9050919050565b60006020820190508181036000830152614b48816145e4565b9050919050565b60006020820190508181036000830152614b6881614624565b9050919050565b60006020820190508181036000830152614b888161468a565b9050919050565b60006020820190508181036000830152614ba8816146ca565b9050919050565b6000606082019050614bc4600083018461470a565b92915050565b6000606082019050614bdf600083018661475b565b614bec6020830185614797565b614bf96040830184614797565b949350505050565b6000602082019050614c166000830184614779565b92915050565b600060a082019050614c316000830188614779565b614c3e6020830187614058565b614c4b6040830186614067565b614c586060830185614250565b614c656080830184614250565b9695505050505050565b600060a082019050614c846000830188614779565b614c916020830187614058565b614c9e6040830186614067565b614cab6060830185614250565b614cb86080830184614779565b9695505050505050565b600060a082019050614cd76000830188614779565b614ce46020830187614058565b614cf16040830186614067565b614cfe6060830185614779565b614d0b6080830184614779565b9695505050505050565b600060a082019050614d2a6000830188614779565b614d376020830187614067565b614d446040830186614067565b614d516060830185614250565b614d5e6080830184614779565b9695505050505050565b6000604082019050614d7d6000830185614779565b614d8a6020830184614158565b9392505050565b6000604082019050614da66000830185614779565b614db36020830184614241565b9392505050565b6000604082019050614dcf6000830185614779565b614ddc6020830184614250565b9392505050565b6000604082019050614df86000830185614779565b614e056020830184614779565b9392505050565b6000606082019050614e216000830186614797565b614e2e6020830185614779565b614e3b604083018461476a565b949350505050565b60008083356001602003843603038112614e5c57600080fd5b80840192508235915067ffffffffffffffff821115614e7a57600080fd5b602083019250600182023603831315614e9257600080fd5b509250929050565b6000604051905081810181811067ffffffffffffffff82111715614ebd57600080fd5b8060405250919050565b600067ffffffffffffffff821115614ede57600080fd5b601f19601f8301169050602081019050919050565b6000819050602082019050919050565b6000819050602082019050919050565b600081519050919050565b600081519050919050565b600081519050919050565b600081519050919050565b6000602082019050919050565b6000602082019050919050565b600082825260208201905092915050565b600082825260208201905092915050565b600082825260208201905092915050565b600081905092915050565b600082825260208201905092915050565b6000614fb38261502c565b9050919050565b60008115159050919050565b6000819050919050565b6000614fdb82614fa8565b9050919050565b6000614fed82614fa8565b9050919050565b6000614fff82614fa8565b9050919050565b6000819050919050565b60006fffffffffffffffffffffffffffffffff82169050919050565b600073ffffffffffffffffffffffffffffffffffffffff82169050919050565b6000819050919050565b600067ffffffffffffffff82169050919050565b600060ff82169050919050565b60006150828261513d565b9050919050565b60006150948261509b565b9050919050565b60006150a68261502c565b9050919050565b60006150b8826150bf565b9050919050565b60006150ca8261502c565b9050919050565b60006150dc826150e3565b9050919050565b60006150ee8261502c565b9050919050565b600061510082615107565b9050919050565b60006151128261502c565b9050919050565b60006151248261504c565b9050919050565b600061513682615010565b9050919050565b60006151488261514f565b9050919050565b600061515a8261502c565b9050919050565b82818337600083830152505050565b60005b8381101561518e578082015181840152602081019050615173565b8381111561519d576000848401525b50505050565b6000601f19601f8301169050919050565b6151bd81614fa8565b81146151c857600080fd5b50565b6151d481614fba565b81146151df57600080fd5b50565b6151eb81614fc6565b81146151f657600080fd5b50565b61520281614fd0565b811461520d57600080fd5b50565b61521981614fe2565b811461522457600080fd5b50565b61523081614ff4565b811461523b57600080fd5b50565b6152478161504c565b811461525257600080fd5b50565b61525e8161506a565b811461526957600080fd5b5056fea2646970667358221220f6f2774b8c6247c344e7c87cf8e5e1c7dcf64aba9cba01231c260a2977c37a9164736f6c634300060c0033",
  "immutableReferences": {
    "2435": [
      {
        "length": 32,
        "start": 4189
      },
      {
        "length": 32,
        "start": 4335
      },
      {
        "length": 32,
        "start": 9397
      },
      {
        "length": 32,
        "start": 9558
      },
      {
        "length": 32,
        "start": 11331
      },
      {
        "length": 32,
        "start": 12954
      }
    ],
    "2438": [
      {
        "length": 32,
        "start": 1863
      },
      {
        "length": 32,
        "start": 3516
      },
      {
        "length": 32,
        "start": 11885
      }
    ],
    "2441": [
      {
        "length": 32,
        "start": 4395
      },
      {
        "length": 32,
        "start": 8569
      },
      {
        "length": 32,
        "start": 9618
      },
      {
        "length": 32,
        "start": 11391
      }
    ]
  },
  "source": "// SPDX-License-Identifier: MIT\n\npragma solidity 0.6.12;\npragma experimental ABIEncoderV2;\n\nimport \"@boringcrypto/boring-solidity/contracts/libraries/BoringMath.sol\";\nimport \"@boringcrypto/boring-solidity/contracts/BoringBatchable.sol\";\nimport \"@boringcrypto/boring-solidity/contracts/BoringOwnable.sol\";\nimport \"./libraries/SignedSafeMath.sol\";\nimport \"./interfaces/IRewarder.sol\";\nimport \"./interfaces/IMamaPut.sol\";\n\ninterface IMigratorChef {\n    // Take the current LP token address and return the new LP token address.\n    // Migrator should have full access to the caller's LP token.\n    function migrate(IERC20 token) external returns (IERC20);\n}\n\n/// @notice The (older) MamaPut contract gives out a constant number of JOLLOF tokens per block.\n/// It is the only address with minting rights for JOLLOF.\n/// The idea for this MamaPut V2 (MCV2) contract is therefore to be the owner of a dummy token\n/// that is deposited into the MamaPut V1 (MCV1) contract.\n/// The allocation point for this pool on MCV1 is the total allocation point for all pools that receive double incentives.\ncontract MamaPutV2 is BoringOwnable, BoringBatchable {\n    using BoringMath for uint256;\n    using BoringMath128 for uint128;\n    using BoringERC20 for IERC20;\n    using SignedSafeMath for int256;\n\n    /// @notice Info of each MCV2 user.\n    /// `amount` LP token amount the user has provided.\n    /// `rewardDebt` The amount of JOLLOF entitled to the user.\n    struct UserInfo {\n        uint256 amount;\n        int256 rewardDebt;\n    }\n\n    /// @notice Info of each MCV2 pool.\n    /// `allocPoint` The amount of allocation points assigned to the pool.\n    /// Also known as the amount of JOLLOF to distribute per block.\n    struct PoolInfo {\n        uint128 accJollofPerShare;\n        uint64 lastRewardBlock;\n        uint64 allocPoint;\n    }\n\n    /// @notice Address of MCV1 contract.\n    IMamaPut public immutable MAMA_PUT;\n    /// @notice Address of JOLLOF contract.\n    IERC20 public immutable JOLLOF;\n    /// @notice The index of MCV2 master pool in MCV1.\n    uint256 public immutable MASTER_PID;\n    // @notice The migrator contract. It has a lot of power. Can only be set through governance (owner).\n    IMigratorChef public migrator;\n\n    /// @notice Info of each MCV2 pool.\n    PoolInfo[] public poolInfo;\n    /// @notice Address of the LP token for each MCV2 pool.\n    IERC20[] public lpToken;\n    /// @notice Address of each `IRewarder` contract in MCV2.\n    IRewarder[] public rewarder;\n\n    /// @notice Info of each user that stakes LP tokens.\n    mapping (uint256 => mapping (address => UserInfo)) public userInfo;\n    /// @dev Total allocation points. Must be the sum of all allocation points in all pools.\n    uint256 public totalAllocPoint;\n\n    uint256 private constant MAMAPUT_JOLLOF_PER_BLOCK = 1e20;\n    uint256 private constant ACC_JOLLOF_PRECISION = 1e12;\n\n    event Deposit(address indexed user, uint256 indexed pid, uint256 amount, address indexed to);\n    event Withdraw(address indexed user, uint256 indexed pid, uint256 amount, address indexed to);\n    event EmergencyWithdraw(address indexed user, uint256 indexed pid, uint256 amount, address indexed to);\n    event Harvest(address indexed user, uint256 indexed pid, uint256 amount);\n    event LogPoolAddition(uint256 indexed pid, uint256 allocPoint, IERC20 indexed lpToken, IRewarder indexed rewarder);\n    event LogSetPool(uint256 indexed pid, uint256 allocPoint, IRewarder indexed rewarder, bool overwrite);\n    event LogUpdatePool(uint256 indexed pid, uint64 lastRewardBlock, uint256 lpSupply, uint256 accJollofPerShare);\n    event LogInit();\n\n    /// @param _MAMA_PUT The JollofSwap MCV1 contract address.\n    /// @param _jollof The JOLLOF token contract address.\n    /// @param _MASTER_PID The pool ID of the dummy token on the base MCV1 contract.\n    constructor(IMamaPut _MAMA_PUT, IERC20 _jollof, uint256 _MASTER_PID) public {\n        MAMA_PUT = _MAMA_PUT;\n        JOLLOF = _jollof;\n        MASTER_PID = _MASTER_PID;\n    }\n\n    /// @notice Deposits a dummy token to `MAMA_PUT` MCV1. This is required because MCV1 holds the minting rights for JOLLOF.\n    /// Any balance of transaction sender in `dummyToken` is transferred.\n    /// The allocation point for the pool on MCV1 is the total allocation point for all pools that receive double incentives.\n    /// @param dummyToken The address of the ERC-20 token to deposit into MCV1.\n    function init(IERC20 dummyToken) external {\n        uint256 balance = dummyToken.balanceOf(msg.sender);\n        require(balance != 0, \"MamaPutV2: Balance must exceed 0\");\n        dummyToken.safeTransferFrom(msg.sender, address(this), balance);\n        dummyToken.approve(address(MAMA_PUT), balance);\n        MAMA_PUT.deposit(MASTER_PID, balance);\n        emit LogInit();\n    }\n\n    /// @notice Returns the number of MCV2 pools.\n    function poolLength() public view returns (uint256 pools) {\n        pools = poolInfo.length;\n    }\n\n    /// @notice Add a new LP to the pool. Can only be called by the owner.\n    /// DO NOT add the same LP token more than once. Rewards will be messed up if you do.\n    /// @param allocPoint AP of the new pool.\n    /// @param _lpToken Address of the LP ERC-20 token.\n    /// @param _rewarder Address of the rewarder delegate.\n    function add(uint256 allocPoint, IERC20 _lpToken, IRewarder _rewarder) public onlyOwner {\n        uint256 lastRewardBlock = block.number;\n        totalAllocPoint = totalAllocPoint.add(allocPoint);\n        lpToken.push(_lpToken);\n        rewarder.push(_rewarder);\n\n        poolInfo.push(PoolInfo({\n            allocPoint: allocPoint.to64(),\n            lastRewardBlock: lastRewardBlock.to64(),\n            accJollofPerShare: 0\n        }));\n        emit LogPoolAddition(lpToken.length.sub(1), allocPoint, _lpToken, _rewarder);\n    }\n\n    /// @notice Update the given pool's JOLLOF allocation point and `IRewarder` contract. Can only be called by the owner.\n    /// @param _pid The index of the pool. See `poolInfo`.\n    /// @param _allocPoint New AP of the pool.\n    /// @param _rewarder Address of the rewarder delegate.\n    /// @param overwrite True if _rewarder should be `set`. Otherwise `_rewarder` is ignored.\n    function set(uint256 _pid, uint256 _allocPoint, IRewarder _rewarder, bool overwrite) public onlyOwner {\n        totalAllocPoint = totalAllocPoint.sub(poolInfo[_pid].allocPoint).add(_allocPoint);\n        poolInfo[_pid].allocPoint = _allocPoint.to64();\n        if (overwrite) { rewarder[_pid] = _rewarder; }\n        emit LogSetPool(_pid, _allocPoint, overwrite ? _rewarder : rewarder[_pid], overwrite);\n    }\n\n    /// @notice Set the `migrator` contract. Can only be called by the owner.\n    /// @param _migrator The contract address to set.\n    function setMigrator(IMigratorChef _migrator) public onlyOwner {\n        migrator = _migrator;\n    }\n\n    /// @notice Migrate LP token to another LP contract through the `migrator` contract.\n    /// @param _pid The index of the pool. See `poolInfo`.\n    function migrate(uint256 _pid) public {\n        require(address(migrator) != address(0), \"MamaPutV2: no migrator set\");\n        IERC20 _lpToken = lpToken[_pid];\n        uint256 bal = _lpToken.balanceOf(address(this));\n        _lpToken.approve(address(migrator), bal);\n        IERC20 newLpToken = migrator.migrate(_lpToken);\n        require(bal == newLpToken.balanceOf(address(this)), \"MamaPutV2: migrated balance must match\");\n        lpToken[_pid] = newLpToken;\n    }\n\n    /// @notice View function to see pending JOLLOF on frontend.\n    /// @param _pid The index of the pool. See `poolInfo`.\n    /// @param _user Address of user.\n    /// @return pending JOLLOF reward for a given user.\n    function pendingJollof(uint256 _pid, address _user) external view returns (uint256 pending) {\n        PoolInfo memory pool = poolInfo[_pid];\n        UserInfo storage user = userInfo[_pid][_user];\n        uint256 accJollofPerShare = pool.accJollofPerShare;\n        uint256 lpSupply = lpToken[_pid].balanceOf(address(this));\n        if (block.number > pool.lastRewardBlock && lpSupply != 0) {\n            uint256 blocks = block.number.sub(pool.lastRewardBlock);\n            uint256 jollofReward = blocks.mul(jollofPerBlock()).mul(pool.allocPoint) / totalAllocPoint;\n            accJollofPerShare = accJollofPerShare.add(jollofReward.mul(ACC_JOLLOF_PRECISION) / lpSupply);\n        }\n        pending = int256(user.amount.mul(accJollofPerShare) / ACC_JOLLOF_PRECISION).sub(user.rewardDebt).toUInt256();\n    }\n\n    /// @notice Update reward variables for all pools. Be careful of gas spending!\n    /// @param pids Pool IDs of all to be updated. Make sure to update all active pools.\n    function massUpdatePools(uint256[] calldata pids) external {\n        uint256 len = pids.length;\n        for (uint256 i = 0; i < len; ++i) {\n            updatePool(pids[i]);\n        }\n    }\n\n    /// @notice Calculates and returns the `amount` of JOLLOF per block.\n    function jollofPerBlock() public view returns (uint256 amount) {\n        amount = uint256(MAMAPUT_JOLLOF_PER_BLOCK)\n            .mul(MAMA_PUT.poolInfo(MASTER_PID).allocPoint) / MAMA_PUT.totalAllocPoint();\n    }\n\n    /// @notice Update reward variables of the given pool.\n    /// @param pid The index of the pool. See `poolInfo`.\n    /// @return pool Returns the pool that was updated.\n    function updatePool(uint256 pid) public returns (PoolInfo memory pool) {\n        pool = poolInfo[pid];\n        if (block.number > pool.lastRewardBlock) {\n            uint256 lpSupply = lpToken[pid].balanceOf(address(this));\n            if (lpSupply > 0) {\n                uint256 blocks = block.number.sub(pool.lastRewardBlock);\n                uint256 jollofReward = blocks.mul(jollofPerBlock()).mul(pool.allocPoint) / totalAllocPoint;\n                pool.accJollofPerShare = pool.accJollofPerShare.add((jollofReward.mul(ACC_JOLLOF_PRECISION) / lpSupply).to128());\n            }\n            pool.lastRewardBlock = block.number.to64();\n            poolInfo[pid] = pool;\n            emit LogUpdatePool(pid, pool.lastRewardBlock, lpSupply, pool.accJollofPerShare);\n        }\n    }\n\n    /// @notice Deposit LP tokens to MCV2 for JOLLOF allocation.\n    /// @param pid The index of the pool. See `poolInfo`.\n    /// @param amount LP token amount to deposit.\n    /// @param to The receiver of `amount` deposit benefit.\n    function deposit(uint256 pid, uint256 amount, address to) public {\n        PoolInfo memory pool = updatePool(pid);\n        UserInfo storage user = userInfo[pid][to];\n\n        // Effects\n        user.amount = user.amount.add(amount);\n        user.rewardDebt = user.rewardDebt.add(int256(amount.mul(pool.accJollofPerShare) / ACC_JOLLOF_PRECISION));\n\n        // Interactions\n        IRewarder _rewarder = rewarder[pid];\n        if (address(_rewarder) != address(0)) {\n            _rewarder.onJollofReward(pid, to, to, 0, user.amount);\n        }\n\n        lpToken[pid].safeTransferFrom(msg.sender, address(this), amount);\n\n        emit Deposit(msg.sender, pid, amount, to);\n    }\n\n    /// @notice Withdraw LP tokens from MCV2.\n    /// @param pid The index of the pool. See `poolInfo`.\n    /// @param amount LP token amount to withdraw.\n    /// @param to Receiver of the LP tokens.\n    function withdraw(uint256 pid, uint256 amount, address to) public {\n        PoolInfo memory pool = updatePool(pid);\n        UserInfo storage user = userInfo[pid][msg.sender];\n\n        // Effects\n        user.rewardDebt = user.rewardDebt.sub(int256(amount.mul(pool.accJollofPerShare) / ACC_JOLLOF_PRECISION));\n        user.amount = user.amount.sub(amount);\n\n        // Interactions\n        IRewarder _rewarder = rewarder[pid];\n        if (address(_rewarder) != address(0)) {\n            _rewarder.onJollofReward(pid, msg.sender, to, 0, user.amount);\n        }\n        \n        lpToken[pid].safeTransfer(to, amount);\n\n        emit Withdraw(msg.sender, pid, amount, to);\n    }\n\n    /// @notice Harvest proceeds for transaction sender to `to`.\n    /// @param pid The index of the pool. See `poolInfo`.\n    /// @param to Receiver of JOLLOF rewards.\n    function harvest(uint256 pid, address to) public {\n        PoolInfo memory pool = updatePool(pid);\n        UserInfo storage user = userInfo[pid][msg.sender];\n        int256 accumulatedJollof = int256(user.amount.mul(pool.accJollofPerShare) / ACC_JOLLOF_PRECISION);\n        uint256 _pendingJollof = accumulatedJollof.sub(user.rewardDebt).toUInt256();\n\n        // Effects\n        user.rewardDebt = accumulatedJollof;\n\n        // Interactions\n        if (_pendingJollof != 0) {\n            JOLLOF.safeTransfer(to, _pendingJollof);\n        }\n        \n        IRewarder _rewarder = rewarder[pid];\n        if (address(_rewarder) != address(0)) {\n            _rewarder.onJollofReward( pid, msg.sender, to, _pendingJollof, user.amount);\n        }\n\n        emit Harvest(msg.sender, pid, _pendingJollof);\n    }\n    \n    /// @notice Withdraw LP tokens from MCV2 and harvest proceeds for transaction sender to `to`.\n    /// @param pid The index of the pool. See `poolInfo`.\n    /// @param amount LP token amount to withdraw.\n    /// @param to Receiver of the LP tokens and JOLLOF rewards.\n    function withdrawAndHarvest(uint256 pid, uint256 amount, address to) public {\n        PoolInfo memory pool = updatePool(pid);\n        UserInfo storage user = userInfo[pid][msg.sender];\n        int256 accumulatedJollof = int256(user.amount.mul(pool.accJollofPerShare) / ACC_JOLLOF_PRECISION);\n        uint256 _pendingJollof = accumulatedJollof.sub(user.rewardDebt).toUInt256();\n\n        // Effects\n        user.rewardDebt = accumulatedJollof.sub(int256(amount.mul(pool.accJollofPerShare) / ACC_JOLLOF_PRECISION));\n        user.amount = user.amount.sub(amount);\n        \n        // Interactions\n        JOLLOF.safeTransfer(to, _pendingJollof);\n\n        IRewarder _rewarder = rewarder[pid];\n        if (address(_rewarder) != address(0)) {\n            _rewarder.onJollofReward(pid, msg.sender, to, _pendingJollof, user.amount);\n        }\n\n        lpToken[pid].safeTransfer(to, amount);\n\n        emit Withdraw(msg.sender, pid, amount, to);\n        emit Harvest(msg.sender, pid, _pendingJollof);\n    }\n\n    /// @notice Harvests Jollof from `MASTER_CHEF` MCV1 and pool `MASTER_PID` to this MCV2 contract.\n    function harvestFromMamaPut() public {\n        MAMA_PUT.deposit(MASTER_PID, 0);\n    }\n\n    /// @notice Withdraw without caring about rewards. EMERGENCY ONLY.\n    /// @param pid The index of the pool. See `poolInfo`.\n    /// @param to Receiver of the LP tokens.\n    function emergencyWithdraw(uint256 pid, address to) public {\n        UserInfo storage user = userInfo[pid][msg.sender];\n        uint256 amount = user.amount;\n        user.amount = 0;\n        user.rewardDebt = 0;\n\n        IRewarder _rewarder = rewarder[pid];\n        if (address(_rewarder) != address(0)) {\n            _rewarder.onJollofReward(pid, msg.sender, to, 0, 0);\n        }\n\n        // Note: transfer can fail or succeed if `amount` is zero.\n        lpToken[pid].safeTransfer(to, amount);\n        emit EmergencyWithdraw(msg.sender, pid, amount, to);\n    }\n}\n",
  "sourcePath": "/home/akanimoh/Documents/ultimate2/core/contracts/MamaPutV2.sol",
  "compiler": {
    "name": "solc",
    "version": "0.6.12+commit.27d51765.Emscripten.clang"
  },
  "schemaVersion": "3.4.1",
  "updatedAt": "2021-07-26T18:12:37.628Z",
  "networkType": "ethereum",
  "devdoc": {
    "kind": "dev",
    "methods": {
      "add(uint256,address,address)": {
        "params": {
          "_lpToken": "Address of the LP ERC-20 token.",
          "_rewarder": "Address of the rewarder delegate.",
          "allocPoint": "AP of the new pool."
        }
      },
      "constructor": {
        "params": {
          "_MAMA_PUT": "The JollofSwap MCV1 contract address.",
          "_MASTER_PID": "The pool ID of the dummy token on the base MCV1 contract.",
          "_jollof": "The JOLLOF token contract address."
        }
      },
      "deposit(uint256,uint256,address)": {
        "params": {
          "amount": "LP token amount to deposit.",
          "pid": "The index of the pool. See `poolInfo`.",
          "to": "The receiver of `amount` deposit benefit."
        }
      },
      "emergencyWithdraw(uint256,address)": {
        "params": {
          "pid": "The index of the pool. See `poolInfo`.",
          "to": "Receiver of the LP tokens."
        }
      },
      "harvest(uint256,address)": {
        "params": {
          "pid": "The index of the pool. See `poolInfo`.",
          "to": "Receiver of JOLLOF rewards."
        }
      },
      "init(address)": {
        "params": {
          "dummyToken": "The address of the ERC-20 token to deposit into MCV1."
        }
      },
      "massUpdatePools(uint256[])": {
        "params": {
          "pids": "Pool IDs of all to be updated. Make sure to update all active pools."
        }
      },
      "migrate(uint256)": {
        "params": {
          "_pid": "The index of the pool. See `poolInfo`."
        }
      },
      "pendingJollof(uint256,address)": {
        "params": {
          "_pid": "The index of the pool. See `poolInfo`.",
          "_user": "Address of user."
        },
        "returns": {
          "pending": "JOLLOF reward for a given user."
        }
      },
      "set(uint256,uint256,address,bool)": {
        "params": {
          "_allocPoint": "New AP of the pool.",
          "_pid": "The index of the pool. See `poolInfo`.",
          "_rewarder": "Address of the rewarder delegate.",
          "overwrite": "True if _rewarder should be `set`. Otherwise `_rewarder` is ignored."
        }
      },
      "setMigrator(address)": {
        "params": {
          "_migrator": "The contract address to set."
        }
      },
      "updatePool(uint256)": {
        "params": {
          "pid": "The index of the pool. See `poolInfo`."
        },
        "returns": {
          "pool": "Returns the pool that was updated."
        }
      },
      "withdraw(uint256,uint256,address)": {
        "params": {
          "amount": "LP token amount to withdraw.",
          "pid": "The index of the pool. See `poolInfo`.",
          "to": "Receiver of the LP tokens."
        }
      },
      "withdrawAndHarvest(uint256,uint256,address)": {
        "params": {
          "amount": "LP token amount to withdraw.",
          "pid": "The index of the pool. See `poolInfo`.",
          "to": "Receiver of the LP tokens and JOLLOF rewards."
        }
      }
    },
    "stateVariables": {
      "totalAllocPoint": {
        "details": "Total allocation points. Must be the sum of all allocation points in all pools."
      }
    },
    "version": 1
  },
  "userdoc": {
    "kind": "user",
    "methods": {
      "JOLLOF()": {
        "notice": "Address of JOLLOF contract."
      },
      "MAMA_PUT()": {
        "notice": "Address of MCV1 contract."
      },
      "MASTER_PID()": {
        "notice": "The index of MCV2 master pool in MCV1."
      },
      "add(uint256,address,address)": {
        "notice": "Add a new LP to the pool. Can only be called by the owner. DO NOT add the same LP token more than once. Rewards will be messed up if you do."
      },
      "deposit(uint256,uint256,address)": {
        "notice": "Deposit LP tokens to MCV2 for JOLLOF allocation."
      },
      "emergencyWithdraw(uint256,address)": {
        "notice": "Withdraw without caring about rewards. EMERGENCY ONLY."
      },
      "harvest(uint256,address)": {
        "notice": "Harvest proceeds for transaction sender to `to`."
      },
      "harvestFromMamaPut()": {
        "notice": "Harvests Jollof from `MASTER_CHEF` MCV1 and pool `MASTER_PID` to this MCV2 contract."
      },
      "init(address)": {
        "notice": "Deposits a dummy token to `MAMA_PUT` MCV1. This is required because MCV1 holds the minting rights for JOLLOF. Any balance of transaction sender in `dummyToken` is transferred. The allocation point for the pool on MCV1 is the total allocation point for all pools that receive double incentives."
      },
      "jollofPerBlock()": {
        "notice": "Calculates and returns the `amount` of JOLLOF per block."
      },
      "lpToken(uint256)": {
        "notice": "Address of the LP token for each MCV2 pool."
      },
      "massUpdatePools(uint256[])": {
        "notice": "Update reward variables for all pools. Be careful of gas spending!"
      },
      "migrate(uint256)": {
        "notice": "Migrate LP token to another LP contract through the `migrator` contract."
      },
      "pendingJollof(uint256,address)": {
        "notice": "View function to see pending JOLLOF on frontend."
      },
      "poolInfo(uint256)": {
        "notice": "Info of each MCV2 pool."
      },
      "poolLength()": {
        "notice": "Returns the number of MCV2 pools."
      },
      "rewarder(uint256)": {
        "notice": "Address of each `IRewarder` contract in MCV2."
      },
      "set(uint256,uint256,address,bool)": {
        "notice": "Update the given pool's JOLLOF allocation point and `IRewarder` contract. Can only be called by the owner."
      },
      "setMigrator(address)": {
        "notice": "Set the `migrator` contract. Can only be called by the owner."
      },
      "updatePool(uint256)": {
        "notice": "Update reward variables of the given pool."
      },
      "userInfo(uint256,address)": {
        "notice": "Info of each user that stakes LP tokens."
      },
      "withdraw(uint256,uint256,address)": {
        "notice": "Withdraw LP tokens from MCV2."
      },
      "withdrawAndHarvest(uint256,uint256,address)": {
        "notice": "Withdraw LP tokens from MCV2 and harvest proceeds for transaction sender to `to`."
      }
    },
    "notice": "The (older) MamaPut contract gives out a constant number of JOLLOF tokens per block. It is the only address with minting rights for JOLLOF. The idea for this MamaPut V2 (MCV2) contract is therefore to be the owner of a dummy token that is deposited into the MamaPut V1 (MCV1) contract. The allocation point for this pool on MCV1 is the total allocation point for all pools that receive double incentives.",
    "version": 1
  }
}