{
  "contractName": "PeggedOracleV1",
  "abi": [
    {
      "inputs": [
        {
          "internalType": "uint256",
          "name": "rate",
          "type": "uint256"
        }
      ],
      "name": "getDataParameter",
      "outputs": [
        {
          "internalType": "bytes",
          "name": "",
          "type": "bytes"
        }
      ],
      "stateMutability": "pure",
      "type": "function",
      "constant": true
    },
    {
      "inputs": [
        {
          "internalType": "bytes",
          "name": "data",
          "type": "bytes"
        }
      ],
      "name": "get",
      "outputs": [
        {
          "internalType": "bool",
          "name": "",
          "type": "bool"
        },
        {
          "internalType": "uint256",
          "name": "",
          "type": "uint256"
        }
      ],
      "stateMutability": "nonpayable",
      "type": "function"
    },
    {
      "inputs": [
        {
          "internalType": "bytes",
          "name": "data",
          "type": "bytes"
        }
      ],
      "name": "peek",
      "outputs": [
        {
          "internalType": "bool",
          "name": "",
          "type": "bool"
        },
        {
          "internalType": "uint256",
          "name": "",
          "type": "uint256"
        }
      ],
      "stateMutability": "view",
      "type": "function",
      "constant": true
    },
    {
      "inputs": [
        {
          "internalType": "bytes",
          "name": "data",
          "type": "bytes"
        }
      ],
      "name": "peekSpot",
      "outputs": [
        {
          "internalType": "uint256",
          "name": "rate",
          "type": "uint256"
        }
      ],
      "stateMutability": "view",
      "type": "function",
      "constant": true
    },
    {
      "inputs": [
        {
          "internalType": "bytes",
          "name": "",
          "type": "bytes"
        }
      ],
      "name": "name",
      "outputs": [
        {
          "internalType": "string",
          "name": "",
          "type": "string"
        }
      ],
      "stateMutability": "view",
      "type": "function",
      "constant": true
    },
    {
      "inputs": [
        {
          "internalType": "bytes",
          "name": "",
          "type": "bytes"
        }
      ],
      "name": "symbol",
      "outputs": [
        {
          "internalType": "string",
          "name": "",
          "type": "string"
        }
      ],
      "stateMutability": "view",
      "type": "function",
      "constant": true
    }
  ],
  "bytecode": "0x608060405234801561001057600080fd5b50610616806100206000396000f3fe608060405234801561001057600080fd5b50600436106100625760003560e01c8063c699c4d614610067578063d39bbef014610159578063d568866c146101e6578063d6d7d525146102d8578063ea887d081461036e578063eeb8a8d314610415575b600080fd5b6100de6004803603602081101561007d57600080fd5b810190808035906020019064010000000081111561009a57600080fd5b8201836020820111156100ac57600080fd5b803590602001918460018302840111640100000000831117156100ce57600080fd5b90919293919293905050506104ab565b6040518080602001828103825283818151815260200191508051906020019080838360005b8381101561011e578082015181840152602081019050610103565b50505050905090810190601f16801561014b5780820380516001836020036101000a031916815260200191505b509250505060405180910390f35b6101d06004803603602081101561016f57600080fd5b810190808035906020019064010000000081111561018c57600080fd5b82018360208201111561019e57600080fd5b803590602001918460018302840111640100000000831117156101c057600080fd5b90919293919293905050506104eb565b6040518082815260200191505060405180910390f35b61025d600480360360208110156101fc57600080fd5b810190808035906020019064010000000081111561021957600080fd5b82018360208201111561022b57600080fd5b8035906020019184600183028401116401000000008311171561024d57600080fd5b9091929391929390505050610503565b6040518080602001828103825283818151815260200191508051906020019080838360005b8381101561029d578082015181840152602081019050610282565b50505050905090810190601f1680156102ca5780820380516001836020036101000a031916815260200191505b509250505060405180910390f35b61034f600480360360208110156102ee57600080fd5b810190808035906020019064010000000081111561030b57600080fd5b82018360208201111561031d57600080fd5b8035906020019184600183028401116401000000008311171561033f57600080fd5b9091929391929390505050610543565b6040518083151581526020018281526020019250505060405180910390f35b61039a6004803603602081101561038457600080fd5b810190808035906020019092919050505061057d565b6040518080602001828103825283818151815260200191508051906020019080838360005b838110156103da5780820151818401526020810190506103bf565b50505050905090810190601f1680156104075780820380516001836020036101000a031916815260200191505b509250505060405180910390f35b61048c6004803603602081101561042b57600080fd5b810190808035906020019064010000000081111561044857600080fd5b82018360208201111561045a57600080fd5b8035906020019184600183028401116401000000008311171561047c57600080fd5b90919293919293905050506105a6565b6040518083151581526020018281526020019250505060405180910390f35b60606040518060400160405280600381526020017f5045470000000000000000000000000000000000000000000000000000000000815250905092915050565b60006104f783836105a6565b90508091505092915050565b60606040518060400160405280600681526020017f5065676765640000000000000000000000000000000000000000000000000000815250905092915050565b60008060008484602081101561055857600080fd5b8101908080359060200190929190505050905060008114158192509250509250929050565b606081604051602001808281526020019150506040516020818303038152906040529050919050565b6000806000848460208110156105bb57600080fd5b810190808035906020019092919050505090506000811415819250925050925092905056fea264697066735822122008f51ff7e4c36454ce0e54b3073d96daed535fa59abaf2578d125338a01aa1f864736f6c634300060c0033",
  "immutableReferences": {},
  "source": "// SPDX-License-Identifier: MIT\npragma solidity 0.6.12;\n\n// File contracts/interfaces/IOracle.sol\n// License-Identifier: MIT\n\ninterface IOracle {\n    /// @notice Get the latest exchange rate.\n    /// @param data Usually abi encoded, implementation specific data that contains information and arguments to & about the oracle.\n    /// For example:\n    /// (string memory collateralSymbol, string memory assetSymbol, uint256 division) = abi.decode(data, (string, string, uint256));\n    /// @return success if no valid (recent) rate is available, return false else true.\n    /// @return rate The rate of the requested asset / pair / pool.\n    function get(bytes calldata data) external returns (bool success, uint256 rate);\n\n    /// @notice Check the last exchange rate without any state changes.\n    /// @param data Usually abi encoded, implementation specific data that contains information and arguments to & about the oracle.\n    /// For example:\n    /// (string memory collateralSymbol, string memory assetSymbol, uint256 division) = abi.decode(data, (string, string, uint256));\n    /// @return success if no valid (recent) rate is available, return false else true.\n    /// @return rate The rate of the requested asset / pair / pool.\n    function peek(bytes calldata data) external view returns (bool success, uint256 rate);\n\n    /// @notice Check the current spot exchange rate without any state changes. For oracles like TWAP this will be different from peek().\n    /// @param data Usually abi encoded, implementation specific data that contains information and arguments to & about the oracle.\n    /// For example:\n    /// (string memory collateralSymbol, string memory assetSymbol, uint256 division) = abi.decode(data, (string, string, uint256));\n    /// @return rate The rate of the requested asset / pair / pool.\n    function peekSpot(bytes calldata data) external view returns (uint256 rate);\n\n    /// @notice Returns a human readable (short) name about this oracle.\n    /// @param data Usually abi encoded, implementation specific data that contains information and arguments to & about the oracle.\n    /// For example:\n    /// (string memory collateralSymbol, string memory assetSymbol, uint256 division) = abi.decode(data, (string, string, uint256));\n    /// @return (string) A human readable symbol name about this oracle.\n    function symbol(bytes calldata data) external view returns (string memory);\n\n    /// @notice Returns a human readable name about this oracle.\n    /// @param data Usually abi encoded, implementation specific data that contains information and arguments to & about the oracle.\n    /// For example:\n    /// (string memory collateralSymbol, string memory assetSymbol, uint256 division) = abi.decode(data, (string, string, uint256));\n    /// @return (string) A human readable name about this oracle.\n    function name(bytes calldata data) external view returns (string memory);\n}\n\n// File contracts/oracles/PeggedOracle.sol\n// License-Identifier: MIT\n\n/// @title PeggedOracle\n/// @author BoringCrypto\n/// @notice Oracle used for pegged prices that don't change\n/// @dev\ncontract PeggedOracleV1 is IOracle {\n    /// @notice\n    /// @dev\n    /// @param rate (uint256) The fixed exchange rate\n    /// @return  (bytes)\n    function getDataParameter(uint256 rate) public pure returns (bytes memory) {\n        return abi.encode(rate);\n    }\n\n    // Get the exchange rate\n    /// @inheritdoc IOracle\n    function get(bytes calldata data) public override returns (bool, uint256) {\n        uint256 rate = abi.decode(data, (uint256));\n        return (rate != 0, rate);\n    }\n\n    // Check the exchange rate without any state changes\n    /// @inheritdoc IOracle\n    function peek(bytes calldata data) public view override returns (bool, uint256) {\n        uint256 rate = abi.decode(data, (uint256));\n        return (rate != 0, rate);\n    }\n\n    // Check the current spot exchange rate without any state changes\n    /// @inheritdoc IOracle\n    function peekSpot(bytes calldata data) external view override returns (uint256 rate) {\n        (, rate) = peek(data);\n    }\n\n    /// @inheritdoc IOracle\n    function name(bytes calldata) public view override returns (string memory) {\n        return \"Pegged\";\n    }\n\n    /// @inheritdoc IOracle\n    function symbol(bytes calldata) public view override returns (string memory) {\n        return \"PEG\";\n    }\n}\n",
  "sourcePath": "/home/akanimoh/Documents/ultimate2/core/contracts/bentobox/PeggedOracleV1.sol",
  "compiler": {
    "name": "solc",
    "version": "0.6.12+commit.27d51765.Emscripten.clang"
  },
  "schemaVersion": "3.4.1",
  "updatedAt": "2021-07-09T20:26:24.324Z",
  "networkType": "ethereum",
  "devdoc": {
    "author": "BoringCrypto",
    "kind": "dev",
    "methods": {
      "get(bytes)": {
        "params": {
          "data": "Usually abi encoded, implementation specific data that contains information and arguments to & about the oracle. For example: (string memory collateralSymbol, string memory assetSymbol, uint256 division) = abi.decode(data, (string, string, uint256));"
        },
        "returns": {
          "_0": "success if no valid (recent) rate is available, return false else true.",
          "_1": "rate The rate of the requested asset / pair / pool."
        }
      },
      "getDataParameter(uint256)": {
        "params": {
          "rate": "(uint256) The fixed exchange rate"
        },
        "returns": {
          "_0": "(bytes)"
        }
      },
      "name(bytes)": {
        "params": {
          "data": "Usually abi encoded, implementation specific data that contains information and arguments to & about the oracle. For example: (string memory collateralSymbol, string memory assetSymbol, uint256 division) = abi.decode(data, (string, string, uint256));"
        },
        "returns": {
          "_0": "(string) A human readable name about this oracle."
        }
      },
      "peek(bytes)": {
        "params": {
          "data": "Usually abi encoded, implementation specific data that contains information and arguments to & about the oracle. For example: (string memory collateralSymbol, string memory assetSymbol, uint256 division) = abi.decode(data, (string, string, uint256));"
        },
        "returns": {
          "_0": "success if no valid (recent) rate is available, return false else true.",
          "_1": "rate The rate of the requested asset / pair / pool."
        }
      },
      "peekSpot(bytes)": {
        "params": {
          "data": "Usually abi encoded, implementation specific data that contains information and arguments to & about the oracle. For example: (string memory collateralSymbol, string memory assetSymbol, uint256 division) = abi.decode(data, (string, string, uint256));"
        },
        "returns": {
          "rate": "The rate of the requested asset / pair / pool."
        }
      },
      "symbol(bytes)": {
        "params": {
          "data": "Usually abi encoded, implementation specific data that contains information and arguments to & about the oracle. For example: (string memory collateralSymbol, string memory assetSymbol, uint256 division) = abi.decode(data, (string, string, uint256));"
        },
        "returns": {
          "_0": "(string) A human readable symbol name about this oracle."
        }
      }
    },
    "title": "PeggedOracle",
    "version": 1
  },
  "userdoc": {
    "kind": "user",
    "methods": {
      "get(bytes)": {
        "notice": "Get the latest exchange rate."
      },
      "getDataParameter(uint256)": {
        "notice": "@dev"
      },
      "name(bytes)": {
        "notice": "Returns a human readable name about this oracle."
      },
      "peek(bytes)": {
        "notice": "Check the last exchange rate without any state changes."
      },
      "peekSpot(bytes)": {
        "notice": "Check the current spot exchange rate without any state changes. For oracles like TWAP this will be different from peek()."
      },
      "symbol(bytes)": {
        "notice": "Returns a human readable (short) name about this oracle."
      }
    },
    "notice": "Oracle used for pegged prices that don't change",
    "version": 1
  }
}