{
  "contractName": "SafeERC20",
  "abi": [
    {
      "inputs": [
        {
          "internalType": "contract IERC20",
          "name": "token",
          "type": "IERC20"
        }
      ],
      "name": "safeDecimals",
      "outputs": [
        {
          "internalType": "uint8",
          "name": "",
          "type": "uint8"
        }
      ],
      "stateMutability": "view",
      "type": "function"
    }
  ],
  "bytecode": "0x610219610026600b82828239805160001a60731461001957fe5b30600052607381538281f3fe73000000000000000000000000000000000000000030146080604052600436106100355760003560e01c806372a58ae11461003a575b600080fd5b61007c6004803603602081101561005057600080fd5b81019080803573ffffffffffffffffffffffffffffffffffffffff169060200190929190505050610095565b604051808260ff16815260200191505060405180910390f35b60008060608373ffffffffffffffffffffffffffffffffffffffff1663313ce5676040516024016040516020818303038152906040529060e01b6020820180517bffffffffffffffffffffffffffffffffffffffffffffffffffffffff83818316178352505050506040518082805190602001908083835b60208310610130578051825260208201915060208101905060208303925061010d565b6001836020036101000a038019825116818451168082178552505050505050905001915050600060405180830381855afa9150503d8060008114610190576040519150601f19603f3d011682016040523d82523d6000602084013e610195565b606091505b50915091508180156101a8575060208151145b6101b35760126101da565b8080602001905160208110156101c857600080fd5b81019080805190602001909291905050505b9250505091905056fea26469706673582212207c6c33df3b48c188ad40d43e3942d5f69c9bf2389df05943de7c04f2a7ca737564736f6c634300060c0033",
  "immutableReferences": {},
  "source": "// SPDX-License-Identifier: MIT\npragma solidity 0.6.12;\n\nimport \"../interfaces/IERC20.sol\";\n\nlibrary SafeERC20 {\n    function safeSymbol(IERC20 token) internal view returns(string memory) {\n        (bool success, bytes memory data) = address(token).staticcall(abi.encodeWithSelector(0x95d89b41));\n        return success && data.length > 0 ? abi.decode(data, (string)) : \"???\";\n    }\n\n    function safeName(IERC20 token) internal view returns(string memory) {\n        (bool success, bytes memory data) = address(token).staticcall(abi.encodeWithSelector(0x06fdde03));\n        return success && data.length > 0 ? abi.decode(data, (string)) : \"???\";\n    }\n\n    function safeDecimals(IERC20 token) public view returns (uint8) {\n        (bool success, bytes memory data) = address(token).staticcall(abi.encodeWithSelector(0x313ce567));\n        return success && data.length == 32 ? abi.decode(data, (uint8)) : 18;\n    }\n\n    function safeTransfer(IERC20 token, address to, uint256 amount) internal {\n        (bool success, bytes memory data) = address(token).call(abi.encodeWithSelector(0xa9059cbb, to, amount));\n        require(success && (data.length == 0 || abi.decode(data, (bool))), \"SafeERC20: Transfer failed\");\n    }\n\n    function safeTransferFrom(IERC20 token, address from, uint256 amount) internal {\n        (bool success, bytes memory data) = address(token).call(abi.encodeWithSelector(0x23b872dd, from, address(this), amount));\n        require(success && (data.length == 0 || abi.decode(data, (bool))), \"SafeERC20: TransferFrom failed\");\n    }\n}\n",
  "sourcePath": "/home/akanimoh/Documents/ultimate2/core/contracts/libraries/SafeERC20.sol",
  "compiler": {
    "name": "solc",
    "version": "0.6.12+commit.27d51765.Emscripten.clang"
  },
  "schemaVersion": "3.4.1",
  "updatedAt": "2021-07-09T12:43:33.205Z",
  "devdoc": {
    "kind": "dev",
    "methods": {},
    "version": 1
  },
  "userdoc": {
    "kind": "user",
    "methods": {},
    "version": 1
  }
}