{
  "contractName": "SushiMakerKashi",
  "abi": [
    {
      "inputs": [
        {
          "internalType": "contract IUniswapV2Factory",
          "name": "_factory",
          "type": "address"
        },
        {
          "internalType": "address",
          "name": "_bar",
          "type": "address"
        },
        {
          "internalType": "contract IBentoBoxWithdraw",
          "name": "_bentoBox",
          "type": "address"
        },
        {
          "internalType": "address",
          "name": "_sushi",
          "type": "address"
        },
        {
          "internalType": "address",
          "name": "_weth",
          "type": "address"
        },
        {
          "internalType": "bytes32",
          "name": "_pairCodeHash",
          "type": "bytes32"
        }
      ],
      "stateMutability": "nonpayable",
      "type": "constructor"
    },
    {
      "anonymous": false,
      "inputs": [
        {
          "indexed": true,
          "internalType": "address",
          "name": "token",
          "type": "address"
        },
        {
          "indexed": true,
          "internalType": "address",
          "name": "bridge",
          "type": "address"
        }
      ],
      "name": "LogBridgeSet",
      "type": "event"
    },
    {
      "anonymous": false,
      "inputs": [
        {
          "indexed": true,
          "internalType": "address",
          "name": "server",
          "type": "address"
        },
        {
          "indexed": true,
          "internalType": "address",
          "name": "token0",
          "type": "address"
        },
        {
          "indexed": false,
          "internalType": "uint256",
          "name": "amount0",
          "type": "uint256"
        },
        {
          "indexed": false,
          "internalType": "uint256",
          "name": "amountBENTO",
          "type": "uint256"
        },
        {
          "indexed": false,
          "internalType": "uint256",
          "name": "amountSUSHI",
          "type": "uint256"
        }
      ],
      "name": "LogConvert",
      "type": "event"
    },
    {
      "anonymous": false,
      "inputs": [
        {
          "indexed": true,
          "internalType": "address",
          "name": "previousOwner",
          "type": "address"
        },
        {
          "indexed": true,
          "internalType": "address",
          "name": "newOwner",
          "type": "address"
        }
      ],
      "name": "OwnershipTransferred",
      "type": "event"
    },
    {
      "inputs": [],
      "name": "claimOwnership",
      "outputs": [],
      "stateMutability": "nonpayable",
      "type": "function"
    },
    {
      "inputs": [],
      "name": "owner",
      "outputs": [
        {
          "internalType": "address",
          "name": "",
          "type": "address"
        }
      ],
      "stateMutability": "view",
      "type": "function"
    },
    {
      "inputs": [],
      "name": "pendingOwner",
      "outputs": [
        {
          "internalType": "address",
          "name": "",
          "type": "address"
        }
      ],
      "stateMutability": "view",
      "type": "function"
    },
    {
      "inputs": [
        {
          "internalType": "address",
          "name": "newOwner",
          "type": "address"
        },
        {
          "internalType": "bool",
          "name": "direct",
          "type": "bool"
        },
        {
          "internalType": "bool",
          "name": "renounce",
          "type": "bool"
        }
      ],
      "name": "transferOwnership",
      "outputs": [],
      "stateMutability": "nonpayable",
      "type": "function"
    },
    {
      "inputs": [
        {
          "internalType": "address",
          "name": "token",
          "type": "address"
        },
        {
          "internalType": "address",
          "name": "bridge",
          "type": "address"
        }
      ],
      "name": "setBridge",
      "outputs": [],
      "stateMutability": "nonpayable",
      "type": "function"
    },
    {
      "inputs": [
        {
          "internalType": "contract IKashiWithdrawFee",
          "name": "kashiPair",
          "type": "address"
        }
      ],
      "name": "convert",
      "outputs": [],
      "stateMutability": "nonpayable",
      "type": "function"
    },
    {
      "inputs": [
        {
          "internalType": "contract IKashiWithdrawFee[]",
          "name": "kashiPair",
          "type": "address[]"
        }
      ],
      "name": "convertMultiple",
      "outputs": [],
      "stateMutability": "nonpayable",
      "type": "function"
    }
  ],
  "bytecode": "0x61014060405234801561001157600080fd5b50604051611c18380380611c18833981810160405260c081101561003457600080fd5b81019080805190602001909291908051906020019092919080519060200190929190805190602001909291908051906020019092919080519060200190929190505050336000806101000a81548173ffffffffffffffffffffffffffffffffffffffff021916908373ffffffffffffffffffffffffffffffffffffffff1602179055503373ffffffffffffffffffffffffffffffffffffffff16600073ffffffffffffffffffffffffffffffffffffffff167f8be0079c531659141344cd1fd0a4f28419497f9722a3daafe3b4186f6b6457e060405160405180910390a38573ffffffffffffffffffffffffffffffffffffffff1660808173ffffffffffffffffffffffffffffffffffffffff1660601b815250508473ffffffffffffffffffffffffffffffffffffffff1660a08173ffffffffffffffffffffffffffffffffffffffff1660601b815250508373ffffffffffffffffffffffffffffffffffffffff1660c08173ffffffffffffffffffffffffffffffffffffffff1660601b815250508273ffffffffffffffffffffffffffffffffffffffff1660e08173ffffffffffffffffffffffffffffffffffffffff1660601b815250508173ffffffffffffffffffffffffffffffffffffffff166101008173ffffffffffffffffffffffffffffffffffffffff1660601b8152505080610120818152505050505050505060805160601c60a05160601c60c05160601c60e05160601c6101005160601c610120516119726102a6600039806114435250806107ee528061100c528061114c5250806107975280610f655280611064525080610dc2525080610fbc52806110865250806113c152506119726000f3fe608060405234801561001057600080fd5b506004361061007d5760003560e01c80639d22ae8c1161005b5780639d22ae8c1461011c578063b11e93a914610180578063def2489b146101f9578063e30c39781461023d5761007d565b8063078dfbe7146100825780634e71e0c8146100de5780638da5cb5b146100e8575b600080fd5b6100dc6004803603606081101561009857600080fd5b81019080803573ffffffffffffffffffffffffffffffffffffffff169060200190929190803515159060200190929190803515159060200190929190505050610271565b005b6100e66104e9565b005b6100f06106b0565b604051808273ffffffffffffffffffffffffffffffffffffffff16815260200191505060405180910390f35b61017e6004803603604081101561013257600080fd5b81019080803573ffffffffffffffffffffffffffffffffffffffff169060200190929190803573ffffffffffffffffffffffffffffffffffffffff1690602001909291905050506106d4565b005b6101f76004803603602081101561019657600080fd5b81019080803590602001906401000000008111156101b357600080fd5b8201836020820111156101c557600080fd5b803590602001918460208302840111640100000000831117156101e757600080fd5b90919293919293905050506109c3565b005b61023b6004803603602081101561020f57600080fd5b81019080803573ffffffffffffffffffffffffffffffffffffffff169060200190929190505050610ab5565b005b610245610b62565b604051808273ffffffffffffffffffffffffffffffffffffffff16815260200191505060405180910390f35b60008054906101000a900473ffffffffffffffffffffffffffffffffffffffff1673ffffffffffffffffffffffffffffffffffffffff163373ffffffffffffffffffffffffffffffffffffffff1614610332576040517f08c379a00000000000000000000000000000000000000000000000000000000081526004018080602001828103825260208152602001807f4f776e61626c653a2063616c6c6572206973206e6f7420746865206f776e657281525060200191505060405180910390fd5b81156104a257600073ffffffffffffffffffffffffffffffffffffffff168373ffffffffffffffffffffffffffffffffffffffff161415806103715750805b6103e3576040517f08c379a00000000000000000000000000000000000000000000000000000000081526004018080602001828103825260158152602001807f4f776e61626c653a207a65726f2061646472657373000000000000000000000081525060200191505060405180910390fd5b8273ffffffffffffffffffffffffffffffffffffffff1660008054906101000a900473ffffffffffffffffffffffffffffffffffffffff1673ffffffffffffffffffffffffffffffffffffffff167f8be0079c531659141344cd1fd0a4f28419497f9722a3daafe3b4186f6b6457e060405160405180910390a3826000806101000a81548173ffffffffffffffffffffffffffffffffffffffff021916908373ffffffffffffffffffffffffffffffffffffffff1602179055506104e4565b82600160006101000a81548173ffffffffffffffffffffffffffffffffffffffff021916908373ffffffffffffffffffffffffffffffffffffffff1602179055505b505050565b6000600160009054906101000a900473ffffffffffffffffffffffffffffffffffffffff1690508073ffffffffffffffffffffffffffffffffffffffff163373ffffffffffffffffffffffffffffffffffffffff16146105b1576040517f08c379a00000000000000000000000000000000000000000000000000000000081526004018080602001828103825260208152602001807f4f776e61626c653a2063616c6c657220213d2070656e64696e67206f776e657281525060200191505060405180910390fd5b8073ffffffffffffffffffffffffffffffffffffffff1660008054906101000a900473ffffffffffffffffffffffffffffffffffffffff1673ffffffffffffffffffffffffffffffffffffffff167f8be0079c531659141344cd1fd0a4f28419497f9722a3daafe3b4186f6b6457e060405160405180910390a3806000806101000a81548173ffffffffffffffffffffffffffffffffffffffff021916908373ffffffffffffffffffffffffffffffffffffffff1602179055506000600160006101000a81548173ffffffffffffffffffffffffffffffffffffffff021916908373ffffffffffffffffffffffffffffffffffffffff16021790555050565b60008054906101000a900473ffffffffffffffffffffffffffffffffffffffff1681565b60008054906101000a900473ffffffffffffffffffffffffffffffffffffffff1673ffffffffffffffffffffffffffffffffffffffff163373ffffffffffffffffffffffffffffffffffffffff1614610795576040517f08c379a00000000000000000000000000000000000000000000000000000000081526004018080602001828103825260208152602001807f4f776e61626c653a2063616c6c6572206973206e6f7420746865206f776e657281525060200191505060405180910390fd5b7f000000000000000000000000000000000000000000000000000000000000000073ffffffffffffffffffffffffffffffffffffffff168273ffffffffffffffffffffffffffffffffffffffff161415801561083d57507f000000000000000000000000000000000000000000000000000000000000000073ffffffffffffffffffffffffffffffffffffffff168273ffffffffffffffffffffffffffffffffffffffff1614155b801561087557508073ffffffffffffffffffffffffffffffffffffffff168273ffffffffffffffffffffffffffffffffffffffff1614155b6108e7576040517f08c379a00000000000000000000000000000000000000000000000000000000081526004018080602001828103825260158152602001807f4d616b65723a20496e76616c696420627269646765000000000000000000000081525060200191505060405180910390fd5b80600260008473ffffffffffffffffffffffffffffffffffffffff1673ffffffffffffffffffffffffffffffffffffffff16815260200190815260200160002060006101000a81548173ffffffffffffffffffffffffffffffffffffffff021916908373ffffffffffffffffffffffffffffffffffffffff1602179055508073ffffffffffffffffffffffffffffffffffffffff168273ffffffffffffffffffffffffffffffffffffffff167f2e103aa707acc565f9a1547341914802b2bfe977fd79c595209f248ae4b0061360405160405180910390a35050565b3273ffffffffffffffffffffffffffffffffffffffff163373ffffffffffffffffffffffffffffffffffffffff1614610a64576040517f08c379a00000000000000000000000000000000000000000000000000000000081526004018080602001828103825260138152602001807f4d616b65723a204d7573742075736520454f410000000000000000000000000081525060200191505060405180910390fd5b60005b82829050811015610ab057610aa3838383818110610a8157fe5b9050602002013573ffffffffffffffffffffffffffffffffffffffff16610b88565b8080600101915050610a67565b505050565b3273ffffffffffffffffffffffffffffffffffffffff163373ffffffffffffffffffffffffffffffffffffffff1614610b56576040517f08c379a00000000000000000000000000000000000000000000000000000000081526004018080602001828103825260138152602001807f4d616b65723a204d7573742075736520454f410000000000000000000000000081525060200191505060405180910390fd5b610b5f81610b88565b50565b600160009054906101000a900473ffffffffffffffffffffffffffffffffffffffff1681565b8073ffffffffffffffffffffffffffffffffffffffff1663476343ee6040518163ffffffff1660e01b8152600401600060405180830381600087803b158015610bd057600080fd5b505af1158015610be4573d6000803e3d6000fd5b5050505060008173ffffffffffffffffffffffffffffffffffffffff16632317ef67308473ffffffffffffffffffffffffffffffffffffffff166370a08231306040518263ffffffff1660e01b8152600401808273ffffffffffffffffffffffffffffffffffffffff16815260200191505060206040518083038186803b158015610c6e57600080fd5b505afa158015610c82573d6000803e3d6000fd5b505050506040513d6020811015610c9857600080fd5b81019080805190602001909291905050506040518363ffffffff1660e01b8152600401808373ffffffffffffffffffffffffffffffffffffffff16815260200182815260200192505050602060405180830381600087803b158015610cfc57600080fd5b505af1158015610d10573d6000803e3d6000fd5b505050506040513d6020811015610d2657600080fd5b8101908080519060200190929190505050905060008273ffffffffffffffffffffffffffffffffffffffff166338d52e0f6040518163ffffffff1660e01b815260040160206040518083038186803b158015610d8157600080fd5b505afa158015610d95573d6000803e3d6000fd5b505050506040513d6020811015610dab57600080fd5b8101908080519060200190929190505050905060007f000000000000000000000000000000000000000000000000000000000000000073ffffffffffffffffffffffffffffffffffffffff166397da6d308330306000886040518663ffffffff1660e01b8152600401808673ffffffffffffffffffffffffffffffffffffffff1681526020018573ffffffffffffffffffffffffffffffffffffffff1681526020018473ffffffffffffffffffffffffffffffffffffffff168152602001838152602001828152602001955050505050506040805180830381600087803b158015610e9557600080fd5b505af1158015610ea9573d6000803e3d6000fd5b505050506040513d6040811015610ebf57600080fd5b8101908080519060200190929190805190602001909291905050505090508173ffffffffffffffffffffffffffffffffffffffff163373ffffffffffffffffffffffffffffffffffffffff167f478cd2df03921485edb4ef53f1cd6747ea7527ef8eb1b27be969115a0964edfb8386610f388787610f61565b60405180848152602001838152602001828152602001935050505060405180910390a350505050565b60007f000000000000000000000000000000000000000000000000000000000000000073ffffffffffffffffffffffffffffffffffffffff168373ffffffffffffffffffffffffffffffffffffffff16141561100a576110027f0000000000000000000000000000000000000000000000000000000000000000838573ffffffffffffffffffffffffffffffffffffffff166111949092919063ffffffff16565b81905061118e565b7f000000000000000000000000000000000000000000000000000000000000000073ffffffffffffffffffffffffffffffffffffffff168373ffffffffffffffffffffffffffffffffffffffff1614156110b1576110aa837f0000000000000000000000000000000000000000000000000000000000000000847f0000000000000000000000000000000000000000000000000000000000000000611377565b905061118d565b6000600260008573ffffffffffffffffffffffffffffffffffffffff1673ffffffffffffffffffffffffffffffffffffffff16815260200190815260200160002060009054906101000a900473ffffffffffffffffffffffffffffffffffffffff169050600073ffffffffffffffffffffffffffffffffffffffff168173ffffffffffffffffffffffffffffffffffffffff16141561116e577f000000000000000000000000000000000000000000000000000000000000000090505b600061117c85838630611377565b90506111888282610f61565b925050505b5b92915050565b600060608473ffffffffffffffffffffffffffffffffffffffff1663a9059cbb8585604051602401808373ffffffffffffffffffffffffffffffffffffffff168152602001828152602001925050506040516020818303038152906040529060e01b6020820180517bffffffffffffffffffffffffffffffffffffffffffffffffffffffff83818316178352505050506040518082805190602001908083835b602083106112575780518252602082019150602081019050602083039250611234565b6001836020036101000a0380198251168184511680821785525050505050509050019150506000604051808303816000865af19150503d80600081146112b9576040519150601f19603f3d011682016040523d82523d6000602084013e6112be565b606091505b50915091508180156112fe57506000815114806112fd57508080602001905160208110156112eb57600080fd5b81019080805190602001909291905050505b5b611370576040517f08c379a000000000000000000000000000000000000000000000000000000000815260040180806020018281038252601a8152602001807f5361666545524332303a205472616e73666572206661696c656400000000000081525060200191505060405180910390fd5b5050505050565b60008060008573ffffffffffffffffffffffffffffffffffffffff168773ffffffffffffffffffffffffffffffffffffffff16106113b65785876113b9565b86865b9150915060007f00000000000000000000000000000000000000000000000000000000000000008383604051602001808373ffffffffffffffffffffffffffffffffffffffff1660601b81526014018273ffffffffffffffffffffffffffffffffffffffff1660601b815260140192505050604051602081830303815290604052805190602001207f000000000000000000000000000000000000000000000000000000000000000060405160200180807fff000000000000000000000000000000000000000000000000000000000000008152506001018473ffffffffffffffffffffffffffffffffffffffff1660601b815260140183815260200182815260200193505050506040516020818303038152906040528051906020012060001c90506000808273ffffffffffffffffffffffffffffffffffffffff16630902f1ac6040518163ffffffff1660e01b815260040160606040518083038186803b15801561152557600080fd5b505afa158015611539573d6000803e3d6000fd5b505050506040513d606081101561154f57600080fd5b81019080805190602001909291908051906020019092919080519060200190929190505050506dffffffffffffffffffffffffffff1691506dffffffffffffffffffffffffffff16915060006115b06103e58a61182490919063ffffffff16565b90508a73ffffffffffffffffffffffffffffffffffffffff168a73ffffffffffffffffffffffffffffffffffffffff1611156117005761160d816115ff6103e88661182490919063ffffffff16565b6118b990919063ffffffff16565b611620838361182490919063ffffffff16565b8161162757fe5b049650611655848a8d73ffffffffffffffffffffffffffffffffffffffff166111949092919063ffffffff16565b8373ffffffffffffffffffffffffffffffffffffffff1663022c0d9f6000898b6040518463ffffffff1660e01b8152600401808481526020018381526020018273ffffffffffffffffffffffffffffffffffffffff16815260200180602001828103825260008152602001602001945050505050600060405180830381600087803b1580156116e357600080fd5b505af11580156116f7573d6000803e3d6000fd5b50505050611816565b611727816117196103e88561182490919063ffffffff16565b6118b990919063ffffffff16565b61173a848361182490919063ffffffff16565b8161174157fe5b04965061176f848a8d73ffffffffffffffffffffffffffffffffffffffff166111949092919063ffffffff16565b8373ffffffffffffffffffffffffffffffffffffffff1663022c0d9f8860008b6040518463ffffffff1660e01b8152600401808481526020018381526020018273ffffffffffffffffffffffffffffffffffffffff16815260200180602001828103825260008152602001602001945050505050600060405180830381600087803b1580156117fd57600080fd5b505af1158015611811573d6000803e3d6000fd5b505050505b505050505050949350505050565b600080821480611841575082828385029250828161183e57fe5b04145b6118b3576040517f08c379a00000000000000000000000000000000000000000000000000000000081526004018080602001828103825260168152602001807f536166654d6174683a204d756c204f766572666c6f770000000000000000000081525060200191505060405180910390fd5b92915050565b6000818284019150811015611936576040517f08c379a00000000000000000000000000000000000000000000000000000000081526004018080602001828103825260168152602001807f536166654d6174683a20416464204f766572666c6f770000000000000000000081525060200191505060405180910390fd5b9291505056fea264697066735822122035c42c6fd554340dae268feec84c1be2adbc764caa167613e724fef73234295964736f6c634300060c0033",
  "immutableReferences": {
    "1557": [
      {
        "length": 32,
        "start": 5057
      }
    ],
    "1559": [
      {
        "length": 32,
        "start": 4028
      },
      {
        "length": 32,
        "start": 4230
      }
    ],
    "1561": [
      {
        "length": 32,
        "start": 3522
      }
    ],
    "1563": [
      {
        "length": 32,
        "start": 1943
      },
      {
        "length": 32,
        "start": 3941
      },
      {
        "length": 32,
        "start": 4196
      }
    ],
    "1565": [
      {
        "length": 32,
        "start": 2030
      },
      {
        "length": 32,
        "start": 4108
      },
      {
        "length": 32,
        "start": 4428
      }
    ],
    "1567": [
      {
        "length": 32,
        "start": 5187
      }
    ]
  },
  "source": "// SPDX-License-Identifier: MIT\n\npragma solidity 0.6.12;\nimport \"./libraries/SafeMath.sol\";\nimport \"./libraries/SafeERC20.sol\";\n\nimport \"./uniswapv2/interfaces/IUniswapV2Pair.sol\";\nimport \"./uniswapv2/interfaces/IUniswapV2Factory.sol\";\n\nimport \"./Ownable.sol\";\n\ninterface IBentoBoxWithdraw {\n    function withdraw(\n        IERC20 token_,\n        address from,\n        address to,\n        uint256 amount,\n        uint256 share\n    ) external returns (uint256 amountOut, uint256 shareOut);\n}\n\ninterface IKashiWithdrawFee {\n    function asset() external view returns (address);\n    function balanceOf(address account) external view returns (uint256);\n    function withdrawFees() external;\n    function removeAsset(address to, uint256 fraction) external returns (uint256 share);\n}\n\n// SushiMakerKashi is MasterChef's left hand and kinda a wizard. He can cook up Sushi from pretty much anything!\n// This contract handles \"serving up\" rewards for xSushi holders by trading tokens collected from Kashi fees for Sushi.\ncontract SushiMakerKashi is Ownable {\n    using SafeMath for uint256;\n    using SafeERC20 for IERC20;\n\n    IUniswapV2Factory private immutable factory;\n    //0xC0AEe478e3658e2610c5F7A4A2E1777cE9e4f2Ac\n    address private immutable bar;\n    //0x8798249c2E607446EfB7Ad49eC89dD1865Ff4272\n    IBentoBoxWithdraw private immutable bentoBox;\n    //0xF5BCE5077908a1b7370B9ae04AdC565EBd643966 \n    address private immutable sushi;\n    //0x6B3595068778DD592e39A122f4f5a5cF09C90fE2\n    address private immutable weth;\n    //0xC02aaA39b223FE8D0A0e5C4F27eAD9083C756Cc2\n    bytes32 private immutable pairCodeHash;\n    //0xe18a34eb0e04b04f7a0ac29a6e80748dca96319b42c54d679cb821dca90c6303\n\n    mapping(address => address) private _bridges;\n\n    event LogBridgeSet(address indexed token, address indexed bridge);\n    event LogConvert(\n        address indexed server,\n        address indexed token0,\n        uint256 amount0,\n        uint256 amountBENTO,\n        uint256 amountSUSHI\n    );\n\n    constructor(\n        IUniswapV2Factory _factory,\n        address _bar,\n        IBentoBoxWithdraw _bentoBox,\n        address _sushi,\n        address _weth,\n        bytes32 _pairCodeHash\n    ) public {\n        factory = _factory;\n        bar = _bar;\n        bentoBox = _bentoBox;\n        sushi = _sushi;\n        weth = _weth;\n        pairCodeHash = _pairCodeHash;\n    }\n\n    function setBridge(address token, address bridge) external onlyOwner {\n        // Checks\n        require(\n            token != sushi && token != weth && token != bridge,\n            \"Maker: Invalid bridge\"\n        );\n        // Effects\n        _bridges[token] = bridge;\n        emit LogBridgeSet(token, bridge);\n    }\n\n    modifier onlyEOA() {\n        // Try to make flash-loan exploit harder to do by only allowing externally-owned addresses.\n        require(msg.sender == tx.origin, \"Maker: Must use EOA\");\n        _;\n    }\n\n    function convert(IKashiWithdrawFee kashiPair) external onlyEOA {\n        _convert(kashiPair);\n    }\n\n    function convertMultiple(IKashiWithdrawFee[] calldata kashiPair) external onlyEOA {\n        for (uint256 i = 0; i < kashiPair.length; i++) {\n            _convert(kashiPair[i]);\n        }\n    }\n\n    function _convert(IKashiWithdrawFee kashiPair) private {\n        // update Kashi fees for this Maker contract (`feeTo`)\n        kashiPair.withdrawFees();\n\n        // convert updated Kashi balance to Bento shares\n        uint256 bentoShares = kashiPair.removeAsset(address(this), kashiPair.balanceOf(address(this)));\n\n        // convert Bento shares to underlying Kashi asset (`token0`) balance (`amount0`) for Maker\n        address token0 = kashiPair.asset();\n        (uint256 amount0, ) = bentoBox.withdraw(IERC20(token0), address(this), address(this), 0, bentoShares);\n\n        emit LogConvert(\n            msg.sender,\n            token0,\n            amount0,\n            bentoShares,\n            _convertStep(token0, amount0)\n        );\n    }\n\n    function _convertStep(address token0, uint256 amount0) private returns (uint256 sushiOut) {\n        if (token0 == sushi) {\n            IERC20(token0).safeTransfer(bar, amount0);\n            sushiOut = amount0;\n        } else if (token0 == weth) {\n            sushiOut = _swap(token0, sushi, amount0, bar);\n        } else {\n            address bridge = _bridges[token0];\n            if (bridge == address(0)) {\n                bridge = weth;\n            }\n            uint256 amountOut = _swap(token0, bridge, amount0, address(this));\n            sushiOut = _convertStep(bridge, amountOut);\n        }\n    }\n\n    function _swap(\n        address fromToken,\n        address toToken,\n        uint256 amountIn,\n        address to\n    ) private returns (uint256 amountOut) {\n        (address token0, address token1) = fromToken < toToken ? (fromToken, toToken) : (toToken, fromToken);\n        IUniswapV2Pair pair =\n            IUniswapV2Pair(\n                uint256(\n                    keccak256(abi.encodePacked(hex\"ff\", factory, keccak256(abi.encodePacked(token0, token1)), pairCodeHash))\n                )\n            );\n        \n        (uint256 reserve0, uint256 reserve1, ) = pair.getReserves();\n        uint256 amountInWithFee = amountIn.mul(997);\n        \n        if (toToken > fromToken) {\n            amountOut =\n                amountInWithFee.mul(reserve1) /\n                reserve0.mul(1000).add(amountInWithFee);\n            IERC20(fromToken).safeTransfer(address(pair), amountIn);\n            pair.swap(0, amountOut, to, \"\");\n        } else {\n            amountOut =\n                amountInWithFee.mul(reserve0) /\n                reserve1.mul(1000).add(amountInWithFee);\n            IERC20(fromToken).safeTransfer(address(pair), amountIn);\n            pair.swap(amountOut, 0, to, \"\");\n        }\n    }\n}\n",
  "sourcePath": "/home/akanimoh/Documents/ultimate2/core/contracts/SushiMakerKashi.sol",
  "compiler": {
    "name": "solc",
    "version": "0.6.12+commit.27d51765.Emscripten.clang"
  },
  "schemaVersion": "3.4.1",
  "updatedAt": "2021-07-09T13:33:22.657Z",
  "devdoc": {
    "kind": "dev",
    "methods": {},
    "version": 1
  },
  "userdoc": {
    "kind": "user",
    "methods": {},
    "version": 1
  }
}